{
  "_format": "hh-sol-artifact-1",
  "contractName": "ArtistRegistry",
  "sourceName": "src/ArtistRegistry.sol",
  "abi": [
    {
      "inputs": [],
      "stateMutability": "nonpayable",
      "type": "constructor"
    },
    {
      "anonymous": false,
      "inputs": [
        {
          "indexed": true,
          "internalType": "address",
          "name": "wallet",
          "type": "address"
        },
        {
          "indexed": false,
          "internalType": "string",
          "name": "name",
          "type": "string"
        },
        {
          "indexed": false,
          "internalType": "uint256",
          "name": "timestamp",
          "type": "uint256"
        }
      ],
      "name": "ArtistRegistered",
      "type": "event"
    },
    {
      "anonymous": false,
      "inputs": [
        {
          "indexed": true,
          "internalType": "address",
          "name": "wallet",
          "type": "address"
        },
        {
          "indexed": false,
          "internalType": "string",
          "name": "name",
          "type": "string"
        },
        {
          "indexed": false,
          "internalType": "uint256",
          "name": "timestamp",
          "type": "uint256"
        }
      ],
      "name": "ArtistUpdated",
      "type": "event"
    },
    {
      "inputs": [
        {
          "internalType": "address",
          "name": "",
          "type": "address"
        }
      ],
      "name": "artists",
      "outputs": [
        {
          "internalType": "address",
          "name": "wallet",
          "type": "address"
        },
        {
          "internalType": "string",
          "name": "name",
          "type": "string"
        },
        {
          "internalType": "string",
          "name": "bio",
          "type": "string"
        },
        {
          "internalType": "string",
          "name": "avatarURI",
          "type": "string"
        },
        {
          "internalType": "uint256",
          "name": "registeredAt",
          "type": "uint256"
        },
        {
          "internalType": "bool",
          "name": "verified",
          "type": "bool"
        }
      ],
      "stateMutability": "view",
      "type": "function"
    },
    {
      "inputs": [
        {
          "internalType": "address",
          "name": "_wallet",
          "type": "address"
        }
      ],
      "name": "getArtist",
      "outputs": [
        {
          "components": [
            {
              "internalType": "address",
              "name": "wallet",
              "type": "address"
            },
            {
              "internalType": "string",
              "name": "name",
              "type": "string"
            },
            {
              "internalType": "string",
              "name": "bio",
              "type": "string"
            },
            {
              "internalType": "string",
              "name": "avatarURI",
              "type": "string"
            },
            {
              "internalType": "uint256",
              "name": "registeredAt",
              "type": "uint256"
            },
            {
              "internalType": "bool",
              "name": "verified",
              "type": "bool"
            }
          ],
          "internalType": "struct ArtistRegistry.Artist",
          "name": "",
          "type": "tuple"
        }
      ],
      "stateMutability": "view",
      "type": "function"
    },
    {
      "inputs": [
        {
          "internalType": "string",
          "name": "_name",
          "type": "string"
        }
      ],
      "name": "getArtistByName",
      "outputs": [
        {
          "components": [
            {
              "internalType": "address",
              "name": "wallet",
              "type": "address"
            },
            {
              "internalType": "string",
              "name": "name",
              "type": "string"
            },
            {
              "internalType": "string",
              "name": "bio",
              "type": "string"
            },
            {
              "internalType": "string",
              "name": "avatarURI",
              "type": "string"
            },
            {
              "internalType": "uint256",
              "name": "registeredAt",
              "type": "uint256"
            },
            {
              "internalType": "bool",
              "name": "verified",
              "type": "bool"
            }
          ],
          "internalType": "struct ArtistRegistry.Artist",
          "name": "",
          "type": "tuple"
        }
      ],
      "stateMutability": "view",
      "type": "function"
    },
    {
      "inputs": [
        {
          "internalType": "address",
          "name": "_wallet",
          "type": "address"
        }
      ],
      "name": "isArtist",
      "outputs": [
        {
          "internalType": "bool",
          "name": "",
          "type": "bool"
        }
      ],
      "stateMutability": "view",
      "type": "function"
    },
    {
      "inputs": [
        {
          "internalType": "string",
          "name": "",
          "type": "string"
        }
      ],
      "name": "nameToWallet",
      "outputs": [
        {
          "internalType": "address",
          "name": "",
          "type": "address"
        }
      ],
      "stateMutability": "view",
      "type": "function"
    },
    {
      "inputs": [],
      "name": "owner",
      "outputs": [
        {
          "internalType": "address",
          "name": "",
          "type": "address"
        }
      ],
      "stateMutability": "view",
      "type": "function"
    },
    {
      "inputs": [
        {
          "internalType": "string",
          "name": "_name",
          "type": "string"
        },
        {
          "internalType": "string",
          "name": "_bio",
          "type": "string"
        },
        {
          "internalType": "string",
          "name": "_avatarURI",
          "type": "string"
        }
      ],
      "name": "registerArtist",
      "outputs": [],
      "stateMutability": "nonpayable",
      "type": "function"
    },
    {
      "inputs": [
        {
          "internalType": "string",
          "name": "_bio",
          "type": "string"
        },
        {
          "internalType": "string",
          "name": "_avatarURI",
          "type": "string"
        }
      ],
      "name": "updateProfile",
      "outputs": [],
      "stateMutability": "nonpayable",
      "type": "function"
    }
  ],
  "bytecode": "0x6080806040523461002857600280546001600160a01b03191633179055610f79908161002e8239f35b600080fdfe6080604052600436101561001257600080fd5b6000803560e01c8063069dab8f14610b995780633790b6961461062d5780636b2f65b0146105ec5780638da5cb5b146105c3578063b949c8041461056f578063c9d3cc6a1461020a578063fb73940a146100f05763fdb69f771461007557600080fd5b346100ed5760203660031901126100ed57600435906001600160401b0382116100ed57366023830112156100ed5760206100b736600485013560248601610e76565b816100cb6040519283815193849201610d85565b600190820190815281900382019020546040516001600160a01b039091168152f35b80fd5b50346100ed5760203660031901126100ed576004356001600160401b03811161020657610121903690600401610dcd565b610129610f10565b508060405192833760019082019081528190036020019020546001600160a01b0390811680156101ce57600560408460ff936101ca965280602052206040519361017285610c8d565b815416845261018360018201610cdf565b602085015261019460028201610cdf565b60408501526101a560038201610cdf565b606085015260048101546080850152015416151560a082015260405191829182610dff565b0390f35b60405162461bcd60e51b815260206004820152601060248201526f105c9d1a5cdd081b9bdd08199bdd5b9960821b6044820152606490fd5b5080fd5b50346100ed5760403660031901126100ed576001600160401b03906004358281116102065761023d903690600401610dcd565b909260243581811161056b57610257903690600401610dcd565b909433855260209385855260046040872001541561053557338652858552600260408720019184821161052157819061029a826102948654610c53565b86610ebc565b8790601f83116001146104bc5788926104b1575b50508160011b916000199060031b1c19161790555b3384528383526003604085200191811161049d576102eb816102e58454610c53565b84610ebc565b83601f821160011461043b5784958293949592610430575b50508160011b916000199060031b1c19161790555b338252818152600190816040842001906040519160408352849381549161033e83610c53565b9283604087015282811690816000146103e9575060011461038e575b505050907f094cbbff307943c7d10b4a53d166c7576bff9136d8e13066a8bcabffc21435209142908201528033930390a280f35b8652828620929450859285905b8385106103d457505050508101606001917f094cbbff307943c7d10b4a53d166c7576bff9136d8e13066a8bcabffc2143520388061035a565b8054868601606001529301928590820161039b565b9150507f094cbbff307943c7d10b4a53d166c7576bff9136d8e13066a8bcabffc214352094939550606092915060ff191682840152151560051b820101929091388061035a565b013590503880610303565b601f1982169583865284862091865b8881106104865750836001959697981061046c575b505050811b019055610318565b0135600019600384901b60f8161c1916905538808061045f565b90928660018192868601358155019401910161044a565b634e487b7160e01b84526041600452602484fd5b0135905038806102ae565b848952878920925090601f198416895b8982821061050b5750509084600195949392106104f1575b505050811b0190556102c3565b0135600019600384901b60f8161c191690553880806104e4565b60018496829395870135815501950192016104cc565b634e487b7160e01b87526041600452602487fd5b60405162461bcd60e51b815260048101869052600e60248201526d139bdd081c9959da5cdd195c995960921b6044820152606490fd5b8380fd5b50346100ed5760203660031901126100ed576001600160a01b03600435818116908190036105bf57600560406101ca9460ff936105aa610f10565b50815280602052206040519361017285610c8d565b8280fd5b50346100ed57806003193601126100ed576002546040516001600160a01b039091168152602090f35b50346100ed5760203660031901126100ed576004356001600160a01b0381169081900361020657604082600492602094528084522001541515604051908152f35b50346100ed5760603660031901126100ed576004356001600160401b0381116102065761065e903690600401610dcd565b6024929183356001600160401b03811161056b57610680903690600401610dcd565b6044356001600160401b038111610b955761069f903690600401610dcd565b8592919215610b615760208611610b2d57338752866020526004604088200154610af45760405192868685376001848801908152849003602001909320546001600160a01b0393908416610ac35761072d9061071e6040519661070188610c8d565b33885261070f368b8b610e76565b95602089019687523691610e76565b92604087019384523691610e76565b91606085019283524260808601528760a08601523388528760205260408820938551166bffffffffffffffffffffffff60a01b855416178455518051906001600160401b038211610a365781906107948261078b6001890154610c53565b60018901610ebc565b602090601f8311600114610a54578a92610a49575b50508160011b916000199060031b1c19161760018401555b51805160028401916001600160401b038211610a365781906107e7826102948654610c53565b602090601f83116001146109d2578a926109c7575b50508160011b916000199060031b1c19161790555b51958651906001600160401b0382116109b5575061083f816108366003850154610c53565b60038501610ebc565b6020601f821160011461092157918160059260a094899a7fcfc0e321967d698aa0d30804d0155801628b0bf25e5289c85a2427554aaa8897999a92610916575b50508160011b916000199060031b1c19161760038201555b6080840151600482015501910151151560ff80198354169116179055604051838282376020818581016001815203019020336bffffffffffffffffffffffff60a01b825416179055826040519160408352816040840152606083013783606084830101524260208201526060813394601f80199101168101030190a280f35b01519050388061087f565b6003830187526020872097875b601f198416811061099d5750827fcfc0e321967d698aa0d30804d0155801628b0bf25e5289c85a2427554aaa889797989960a09593600193600596601f19811610610984575b505050811b016003820155610897565b015160001960f88460031b161c19169055388080610974565b828201518a556001909901986020928301920161092e565b634e487b7160e01b8752604160045286fd5b0151905038806107fc565b848b5260208b209250601f1984168b5b818110610a1e5750908460019594939210610a05575b505050811b019055610811565b015160001960f88460031b161c191690553880806109f8565b929360206001819287860151815501950193016109e2565b634e487b7160e01b895260416004528989fd5b0151905038806107a9565b9250600186018a5260208a20908a935b601f1984168510610aa8576001945083601f19811610610a8f575b505050811b0160018401556107c1565b015160001960f88460031b161c19169055388080610a7f565b81810151835560209485019460019093019290910190610a64565b60405162461bcd60e51b815260206004820152600a818b0152692730b6b2903a30b5b2b760b11b6044820152606490fd5b60405162461bcd60e51b8152602060048201526012818a015271105b1c9958591e481c9959da5cdd195c995960721b6044820152606490fd5b60405162461bcd60e51b815260206004820152600d818a01526c4e616d6520746f6f206c6f6e6760981b6044820152606490fd5b60405162461bcd60e51b815260206004820152600d818a01526c13985b59481c995c5d5a5c9959609a1b6044820152606490fd5b8580fd5b50346100ed5760203660031901126100ed576001600160a01b03906004358281169081900361020657906040918152806020522090815416610bdd60018301610cdf565b91610bea60028201610cdf565b610c42610bf960038401610cdf565b610c3460ff600560048701549601541693610c26604051988998895260c060208a015260c0890190610da8565b908782036040890152610da8565b908582036060870152610da8565b916080840152151560a08301520390f35b90600182811c92168015610c83575b6020831014610c6d57565b634e487b7160e01b600052602260045260246000fd5b91607f1691610c62565b60c081019081106001600160401b03821117610ca857604052565b634e487b7160e01b600052604160045260246000fd5b90601f801991011681019081106001600160401b03821117610ca857604052565b9060405191826000825492610cf384610c53565b908184526001948581169081600014610d625750600114610d1f575b5050610d1d92500383610cbe565b565b9093915060005260209081600020936000915b818310610d4a575050610d1d93508201013880610d0f565b85548884018501529485019487945091830191610d32565b915050610d1d94506020925060ff191682840152151560051b8201013880610d0f565b60005b838110610d985750506000910152565b8181015183820152602001610d88565b90602091610dc181518092818552858086019101610d85565b601f01601f1916010190565b9181601f84011215610dfa578235916001600160401b038311610dfa5760208381860195010111610dfa57565b600080fd5b6020815260018060a01b03825116602082015260c060a0610e62610e31602086015184604087015260e0860190610da8565b610e4d604087015191601f199283888303016060890152610da8565b90606087015190868303016080870152610da8565b936080810151828501520151151591015290565b9291926001600160401b038211610ca85760405191610e9f601f8201601f191660200184610cbe565b829481845281830111610dfa578281602093846000960137010152565b90601f8111610eca57505050565b600091825260208220906020601f850160051c83019410610f06575b601f0160051c01915b828110610efb57505050565b818155600101610eef565b9092508290610ee6565b60405190610f1d82610c8d565b600060a0838281526060602082015260606040820152606080820152826080820152015256fea26469706673582212207e63eb6acae410f8ee79f71381ca887afb11375f43ddf869ae63bd869957ecae64736f6c63430008130033",
  "linkReferences": {},
  "deployedLinkReferences": {}
}