{"src/TrackRegistry.sol":{"TrackRegistry":{"abi":[{"inputs":[{"internalType":"address","name":"_artistRegistry","type":"address"},{"internalType":"address","name":"_platformWallet","type":"address"}],"stateMutability":"nonpayable","type":"constructor"},{"anonymous":false,"inputs":[{"indexed":true,"internalType":"uint256","name":"trackId","type":"uint256"},{"indexed":false,"internalType":"string","name":"title","type":"string"},{"indexed":false,"internalType":"uint256","name":"timestamp","type":"uint256"}],"name":"TrackUpdated","type":"event"},{"anonymous":false,"inputs":[{"indexed":true,"internalType":"uint256","name":"trackId","type":"uint256"},{"indexed":true,"internalType":"address","name":"artist","type":"address"},{"indexed":false,"internalType":"string","name":"title","type":"string"},{"indexed":false,"internalType":"uint256","name":"timestamp","type":"uint256"}],"name":"TrackUploaded","type":"event"},{"inputs":[],"name":"TOTAL_SHARES","outputs":[{"internalType":"uint256","name":"","type":"uint256"}],"stateMutability":"view","type":"function"},{"inputs":[],"name":"artistRegistry","outputs":[{"internalType":"contract ArtistRegistry","name":"","type":"address"}],"stateMutability":"view","type":"function"},{"inputs":[{"internalType":"address","name":"","type":"address"},{"internalType":"uint256","name":"","type":"uint256"}],"name":"artistTracks","outputs":[{"internalType":"uint256","name":"","type":"uint256"}],"stateMutability":"view","type":"function"},{"inputs":[{"internalType":"uint256","name":"_trackId","type":"uint256"}],"name":"deactivateTrack","outputs":[],"stateMutability":"nonpayable","type":"function"},{"inputs":[{"internalType":"address","name":"_artist","type":"address"}],"name":"getArtistTracks","outputs":[{"internalType":"uint256[]","name":"","type":"uint256[]"}],"stateMutability":"view","type":"function"},{"inputs":[{"internalType":"uint256","name":"_trackId","type":"uint256"}],"name":"getTrack","outputs":[{"components":[{"internalType":"uint256","name":"id","type":"uint256"},{"internalType":"address","name":"artist","type":"address"},{"internalType":"string","name":"title","type":"string"},{"internalType":"string","name":"description","type":"string"},{"internalType":"string","name":"audioURI","type":"string"},{"internalType":"string","name":"coverArtURI","type":"string"},{"internalType":"uint256","name":"duration","type":"uint256"},{"internalType":"string","name":"genre","type":"string"},{"internalType":"uint256","name":"uploadedAt","type":"uint256"},{"internalType":"bool","name":"isActive","type":"bool"},{"internalType":"uint16","name":"artistShare","type":"uint16"},{"internalType":"uint16","name":"platformShare","type":"uint16"},{"internalType":"uint16","name":"listenerShare","type":"uint16"}],"internalType":"struct TrackRegistry.Track","name":"","type":"tuple"}],"stateMutability":"view","type":"function"},{"inputs":[],"name":"getTrackCount","outputs":[{"internalType":"uint256","name":"","type":"uint256"}],"stateMutability":"view","type":"function"},{"inputs":[],"name":"owner","outputs":[{"internalType":"address","name":"","type":"address"}],"stateMutability":"view","type":"function"},{"inputs":[],"name":"platformWallet","outputs":[{"internalType":"address","name":"","type":"address"}],"stateMutability":"view","type":"function"},{"inputs":[{"internalType":"uint256","name":"","type":"uint256"}],"name":"tracks","outputs":[{"internalType":"uint256","name":"id","type":"uint256"},{"internalType":"address","name":"artist","type":"address"},{"internalType":"string","name":"title","type":"string"},{"internalType":"string","name":"description","type":"string"},{"internalType":"string","name":"audioURI","type":"string"},{"internalType":"string","name":"coverArtURI","type":"string"},{"internalType":"uint256","name":"duration","type":"uint256"},{"internalType":"string","name":"genre","type":"string"},{"internalType":"uint256","name":"uploadedAt","type":"uint256"},{"internalType":"bool","name":"isActive","type":"bool"},{"internalType":"uint16","name":"artistShare","type":"uint16"},{"internalType":"uint16","name":"platformShare","type":"uint16"},{"internalType":"uint16","name":"listenerShare","type":"uint16"}],"stateMutability":"view","type":"function"},{"inputs":[{"internalType":"string","name":"_title","type":"string"},{"internalType":"string","name":"_description","type":"string"},{"internalType":"string","name":"_audioURI","type":"string"},{"internalType":"string","name":"_coverArtURI","type":"string"},{"internalType":"uint256","name":"_duration","type":"uint256"},{"internalType":"string","name":"_genre","type":"string"},{"internalType":"uint16","name":"_artistShare","type":"uint16"},{"internalType":"uint16","name":"_platformShare","type":"uint16"},{"internalType":"uint16","name":"_listenerShare","type":"uint16"}],"name":"uploadTrack","outputs":[{"internalType":"uint256","name":"","type":"uint256"}],"stateMutability":"nonpayable","type":"function"}],"evm":{"bytecode":{"linkReferences":{},"object":"60803461009257601f6114b738819003918201601f19168301916001600160401b0383118484101761009757808492604094855283398101031261009257610052602061004b836100ad565b92016100ad565b9060018060a01b0319913383600354161760035560018060a01b03809216836001541617600155169060045416176004556040516113f590816100c28239f35b600080fd5b634e487b7160e01b600052604160045260246000fd5b51906001600160a01b03821682036100925756fe6080604052600436101561001257600080fd5b60003560e01c8063320f64b51461066e57806353392258146105ba57806358cc8a3714610516578063629058ca146102d75780637b3ee6331461027f57806381703be71461025657806385e3f997146102395780638da5cb5b14610210578063a2e34586146100e1578063b9e78bc4146100c35763fa2af9da1461009557600080fd5b346100be5760003660031901126100be576004546040516001600160a01b039091168152602090f35b600080fd5b346100be5760003660031901126100be576020600054604051908152f35b346100be5760203660031901126100be576004356000548110156100be57610108906111a4565b50805460018201546001600160a01b03169161012660028201611269565b61013260038301611269565b61013e60048401611269565b61014a60058501611269565b60068501549161015c60078701611269565b936008870154966009015495604051998a998a5260208a01526101a08060408b0152890161018991611136565b88810360608a015261019a91611136565b87810360808901526101ab91611136565b86810360a08801526101bc91611136565b9060c086015284810360e08601526101d391611136565b9161010084015260ff8116151561012084015261ffff90818160081c16610140850152818160181c1661016085015260281c166101808301520390f35b346100be5760003660031901126100be576003546040516001600160a01b039091168152602090f35b346100be5760003660031901126100be5760206040516127108152f35b346100be5760003660031901126100be576001546040516001600160a01b039091168152602090f35b346100be5760403660031901126100be57610298611120565b6001600160a01b03166000908152600260205260409020805460243591908210156100be576020916102c991611176565b90546040519160031b1c8152f35b346100be5760203660031901126100be5761036060043560006101806040516102ff8161122c565b8281528260208201526060604082015260608082015260606080820152606060a08201528260c0820152606060e082015282610100820152826101208201528261014082015282610160820152015261035b6000548210611381565b6111a4565b5061ffff6009604051926103738461122c565b8054845260018101546001600160a01b0316602085015261039660028201611269565b60408501526103a760038201611269565b60608501526103b860048201611269565b60808501526103c960058201611269565b60a0850152600681015460c08501526103e460078201611269565b60e08501526008810154610100850152015460ff81161515610120840152818160081c16610140840152818160181c1661016084015260281c166101808201526040518091602082528051602083015260018060a01b03602082015116604083015261ffff6101806104d461046a60408501516101a060608801526101c0870190611136565b6104b46104a061048c606088015193601f1994858b83030160808c0152611136565b6080880151848a83030160a08b0152611136565b60a0870151838983030160c08a0152611136565b9060c086015160e088015260e08601519087830301610100880152611136565b92610100810151610120860152610120810151151561014086015282610140820151166101608601528261016082015116828601520151166101a08301520390f35b346100be5760203660031901126100be576004356105376000548210611381565b6001610542826111a4565b50818060a01b0391829101541633149081156105ac575b50156105765761056a6009916111a4565b5001805460ff19169055005b60405162461bcd60e51b815260206004820152600e60248201526d139bdd08185d5d1a1bdc9a5e995960921b6044820152606490fd5b905060035416331482610559565b346100be576020806003193601126100be576001600160a01b036105dc611120565b1660005260028152604060002060405190818382549182815201908192600052846000209060005b8682821061065a57868661061a82880383611248565b604051928392818401908285525180915260408401929160005b82811061064357505050500390f35b835185528695509381019392810192600101610634565b835485529093019260019283019201610604565b346100be576101203660031901126100be576004356001600160401b0381116100be5761069f9036906004016110f3565b6024356001600160401b0381116100be576106be9036906004016110f3565b6044929192356001600160401b0381116100be576106e09036906004016110f3565b906064356001600160401b0381116100be576107009036906004016110f3565b60a4356001600160401b0381116100be5761071f9036906004016110f3565b93909461ffff60c4351660c435036100be5761ffff60e4351660e435036100be5761ffff610104351661010435036100be576001546306b2f65b60e41b60809081523360845260209160249082906001600160a01b03165afa80156110e7576000906110b0575b1561106b578715611035578015610ffb5761271061ffff6107b7610104356107b260e43560c43561130f565b61130f565b1603610fbd5760005498604051976107ce8961122c565b8a89523360208a01526107e2368b8e61133b565b60408a015236906107f29261133b565b606088015236906108029261133b565b608086015236906108129261133b565b60a084015260843560c0840152369061082a9261133b565b60e082015242610100820152600161012082015261ffff60c435811661014083015260e43581166101608301526101043516610180820152600160401b831015610b8c576001830160005561087e836111a4565b610fa757815181556001810160018060a01b036020840151166bffffffffffffffffffffffff60a01b82541617905560408201518051906001600160401b038211610b8c5781906108d260028501546111f2565b601f8111610f54575b50602090601f8311600114610ee257600092610ed7575b50508160011b916000199060031b1c19161760028201555b60608201518051906001600160401b038211610b8c57819061092f60038501546111f2565b601f8111610e84575b50602090601f8311600114610e1257600092610e07575b50508160011b916000199060031b1c19161760038201555b60808201518051906001600160401b038211610b8c57819061098c60048501546111f2565b601f8111610db4575b50602090601f8311600114610d4257600092610d37575b50508160011b916000199060031b1c19161760048201555b60a08201518051906001600160401b038211610b8c5781906109e960058501546111f2565b601f8111610ce4575b50602090601f8311600114610c7257600092610c67575b50508160011b916000199060031b1c19161760058201555b60c0820151600682015560e08201518051906001600160401b038211610b8c57610a4e60078401546111f2565b601f8111610c20575b50602090601f8311600114610bad57600993929160009183610ba2575b50508160011b916000199060031b1c19161760078201555b61010083015160088201550190610120810151151590825462ffff0061014083015160081b169060ff66ffff000000000061018064ffff00000061016087015160181b1695015160281b1694169066ffffffffffffff191617171717905533600052600260205260406000208054600160401b811015610b8c57602094610b3b82869460017fcde08f0d3b4bb15d307a0359e563c6b750b18f0dee87b6cc1fe8491a910866b595018155611176565b81549060031b9085821b91600019901b1916179055836040519160408352816040840152606083013760006060858301015242868201526060813395601f80199101168101030190a3604051908152f35b634e487b7160e01b600052604160045260246000fd5b015190508880610a74565b906007840160005260206000209160005b601f1985168110610c08575091839160019360099695601f19811610610bef575b505050811b016007820155610a8c565b015160001960f88460031b161c19169055888080610bdf565b91926020600181928685015181550194019201610bbe565b600784016000526020600020601f840160051c810160208510610c60575b601f830160051c82018110610c54575050610a57565b60008155600101610c3e565b5080610c3e565b015190508780610a09565b9250600584016000526020600020906000935b601f1984168510610cc9576001945083601f19811610610cb0575b505050811b016005820155610a21565b015160001960f88460031b161c19169055878080610ca0565b81810151835560209485019460019093019290910190610c85565b909150600584016000526020600020601f840160051c810160208510610d30575b90849392915b601f830160051c82018110610d215750506109f2565b60008155859450600101610d0b565b5080610d05565b0151905087806109ac565b9250600484016000526020600020906000935b601f1984168510610d99576001945083601f19811610610d80575b505050811b0160048201556109c4565b015160001960f88460031b161c19169055878080610d70565b81810151835560209485019460019093019290910190610d55565b909150600484016000526020600020601f840160051c810160208510610e00575b90849392915b601f830160051c82018110610df1575050610995565b60008155859450600101610ddb565b5080610dd5565b01519050878061094f565b9250600384016000526020600020906000935b601f1984168510610e69576001945083601f19811610610e50575b505050811b016003820155610967565b015160001960f88460031b161c19169055878080610e40565b81810151835560209485019460019093019290910190610e25565b909150600384016000526020600020601f840160051c810160208510610ed0575b90849392915b601f830160051c82018110610ec1575050610938565b60008155859450600101610eab565b5080610ea5565b0151905087806108f2565b9250600284016000526020600020906000935b601f1984168510610f39576001945083601f19811610610f20575b505050811b01600282015561090a565b015160001960f88460031b161c19169055878080610f10565b81810151835560209485019460019093019290910190610ef5565b909150600284016000526020600020601f840160051c810160208510610fa0575b90849392915b601f830160051c82018110610f915750506108db565b60008155859450600101610f7b565b5080610f75565b634e487b7160e01b600052600060045260246000fd5b60405162461bcd60e51b8152602060048201526016602482015275536861726573206d75737420657175616c203130302560501b6044820152606490fd5b60405162461bcd60e51b8152602060048201526012602482015271105d591a5bc8155492481c995c5d5a5c995960721b6044820152606490fd5b60405162461bcd60e51b815260206004820152600e60248201526d151a5d1b19481c995c5d5a5c995960921b6044820152606490fd5b60405162461bcd60e51b815260206004820152601960248201527f4d757374206265207265676973746572656420617274697374000000000000006044820152606490fd5b5060203d6020116110e0575b806110ca6020926080611248565b126100be57608051801515811461078657600080fd5b503d6110bc565b6040513d6000823e3d90fd5b9181601f840112156100be578235916001600160401b0383116100be57602083818601950101116100be57565b600435906001600160a01b03821682036100be57565b919082519283825260005b848110611162575050826000602080949584010152601f8019910116010190565b602081830181015184830182015201611141565b805482101561118e5760005260206000200190600090565b634e487b7160e01b600052603260045260246000fd5b9060009182548110156111de57600a90838052027f290decd9548b62a8d60345a988386fc84ba6bc95484008f6362f93160ef3e563019190565b634e487b7160e01b83526032600452602483fd5b90600182811c92168015611222575b602083101461120c57565b634e487b7160e01b600052602260045260246000fd5b91607f1691611201565b6101a081019081106001600160401b03821117610b8c57604052565b90601f801991011681019081106001600160401b03821117610b8c57604052565b906040519182600082549261127d846111f2565b9081845260019485811690816000146112ec57506001146112a9575b50506112a792500383611248565b565b9093915060005260209081600020936000915b8183106112d45750506112a793508201013880611299565b855488840185015294850194879450918301916112bc565b9150506112a794506020925060ff191682840152151560051b8201013880611299565b91909161ffff8080941691160191821161132557565b634e487b7160e01b600052601160045260246000fd5b9291926001600160401b038211610b8c5760405191611364601f8201601f191660200184611248565b8294818452818301116100be578281602093846000960137010152565b1561138857565b60405162461bcd60e51b815260206004820152600f60248201526e151c9858dac81b9bdd08199bdd5b99608a1b6044820152606490fdfea26469706673582212200abe538c4189f4756cfda9b44919da267b02d09465ce7812b6b65367f0548e2a64736f6c63430008130033","opcodes":"PUSH1 0x80 CALLVALUE PUSH2 0x92 JUMPI PUSH1 0x1F PUSH2 0x14B7 CODESIZE DUP2 SWAP1 SUB SWAP2 DUP3 ADD PUSH1 0x1F NOT AND DUP4 ADD SWAP2 PUSH1 0x1 PUSH1 0x1 PUSH1 0x40 SHL SUB DUP4 GT DUP5 DUP5 LT OR PUSH2 0x97 JUMPI DUP1 DUP5 SWAP3 PUSH1 0x40 SWAP5 DUP6 MSTORE DUP4 CODECOPY DUP2 ADD SUB SLT PUSH2 0x92 JUMPI PUSH2 0x52 PUSH1 0x20 PUSH2 0x4B DUP4 PUSH2 0xAD JUMP JUMPDEST SWAP3 ADD PUSH2 0xAD JUMP JUMPDEST SWAP1 PUSH1 0x1 DUP1 PUSH1 0xA0 SHL SUB NOT SWAP2 CALLER DUP4 PUSH1 0x3 SLOAD AND OR PUSH1 0x3 SSTORE PUSH1 0x1 DUP1 PUSH1 0xA0 SHL SUB DUP1 SWAP3 AND DUP4 PUSH1 0x1 SLOAD AND OR PUSH1 0x1 SSTORE AND SWAP1 PUSH1 0x4 SLOAD AND OR PUSH1 0x4 SSTORE PUSH1 0x40 MLOAD PUSH2 0x13F5 SWAP1 DUP2 PUSH2 0xC2 DUP3 CODECOPY RETURN JUMPDEST PUSH1 0x0 DUP1 REVERT JUMPDEST PUSH4 0x4E487B71 PUSH1 0xE0 SHL PUSH1 0x0 MSTORE PUSH1 0x41 PUSH1 0x4 MSTORE PUSH1 0x24 PUSH1 0x0 REVERT JUMPDEST MLOAD SWAP1 PUSH1 0x1 PUSH1 0x1 PUSH1 0xA0 SHL SUB DUP3 AND DUP3 SUB PUSH2 0x92 JUMPI JUMP INVALID PUSH1 0x80 PUSH1 0x40 MSTORE PUSH1 0x4 CALLDATASIZE LT ISZERO PUSH2 0x12 JUMPI PUSH1 0x0 DUP1 REVERT JUMPDEST PUSH1 0x0 CALLDATALOAD PUSH1 0xE0 SHR DUP1 PUSH4 0x320F64B5 EQ PUSH2 0x66E JUMPI DUP1 PUSH4 0x53392258 EQ PUSH2 0x5BA JUMPI DUP1 PUSH4 0x58CC8A37 EQ PUSH2 0x516 JUMPI DUP1 PUSH4 0x629058CA EQ PUSH2 0x2D7 JUMPI DUP1 PUSH4 0x7B3EE633 EQ PUSH2 0x27F JUMPI DUP1 PUSH4 0x81703BE7 EQ PUSH2 0x256 JUMPI DUP1 PUSH4 0x85E3F997 EQ PUSH2 0x239 JUMPI DUP1 PUSH4 0x8DA5CB5B EQ PUSH2 0x210 JUMPI DUP1 PUSH4 0xA2E34586 EQ PUSH2 0xE1 JUMPI DUP1 PUSH4 0xB9E78BC4 EQ PUSH2 0xC3 JUMPI PUSH4 0xFA2AF9DA EQ PUSH2 0x95 JUMPI PUSH1 0x0 DUP1 REVERT JUMPDEST CALLVALUE PUSH2 0xBE JUMPI PUSH1 0x0 CALLDATASIZE PUSH1 0x3 NOT ADD SLT PUSH2 0xBE JUMPI PUSH1 0x4 SLOAD PUSH1 0x40 MLOAD PUSH1 0x1 PUSH1 0x1 PUSH1 0xA0 SHL SUB SWAP1 SWAP2 AND DUP2 MSTORE PUSH1 0x20 SWAP1 RETURN JUMPDEST PUSH1 0x0 DUP1 REVERT JUMPDEST CALLVALUE PUSH2 0xBE JUMPI PUSH1 0x0 CALLDATASIZE PUSH1 0x3 NOT ADD SLT PUSH2 0xBE JUMPI PUSH1 0x20 PUSH1 0x0 SLOAD PUSH1 0x40 MLOAD SWAP1 DUP2 MSTORE RETURN JUMPDEST CALLVALUE PUSH2 0xBE JUMPI PUSH1 0x20 CALLDATASIZE PUSH1 0x3 NOT ADD SLT PUSH2 0xBE JUMPI PUSH1 0x4 CALLDATALOAD PUSH1 0x0 SLOAD DUP2 LT ISZERO PUSH2 0xBE JUMPI PUSH2 0x108 SWAP1 PUSH2 0x11A4 JUMP JUMPDEST POP DUP1 SLOAD PUSH1 0x1 DUP3 ADD SLOAD PUSH1 0x1 PUSH1 0x1 PUSH1 0xA0 SHL SUB AND SWAP2 PUSH2 0x126 PUSH1 0x2 DUP3 ADD PUSH2 0x1269 JUMP JUMPDEST PUSH2 0x132 PUSH1 0x3 DUP4 ADD PUSH2 0x1269 JUMP JUMPDEST PUSH2 0x13E PUSH1 0x4 DUP5 ADD PUSH2 0x1269 JUMP JUMPDEST PUSH2 0x14A PUSH1 0x5 DUP6 ADD PUSH2 0x1269 JUMP JUMPDEST PUSH1 0x6 DUP6 ADD SLOAD SWAP2 PUSH2 0x15C PUSH1 0x7 DUP8 ADD PUSH2 0x1269 JUMP JUMPDEST SWAP4 PUSH1 0x8 DUP8 ADD SLOAD SWAP7 PUSH1 0x9 ADD SLOAD SWAP6 PUSH1 0x40 MLOAD SWAP10 DUP11 SWAP10 DUP11 MSTORE PUSH1 0x20 DUP11 ADD MSTORE PUSH2 0x1A0 DUP1 PUSH1 0x40 DUP12 ADD MSTORE DUP10 ADD PUSH2 0x189 SWAP2 PUSH2 0x1136 JUMP JUMPDEST DUP9 DUP2 SUB PUSH1 0x60 DUP11 ADD MSTORE PUSH2 0x19A SWAP2 PUSH2 0x1136 JUMP JUMPDEST DUP8 DUP2 SUB PUSH1 0x80 DUP10 ADD MSTORE PUSH2 0x1AB SWAP2 PUSH2 0x1136 JUMP JUMPDEST DUP7 DUP2 SUB PUSH1 0xA0 DUP9 ADD MSTORE PUSH2 0x1BC SWAP2 PUSH2 0x1136 JUMP JUMPDEST SWAP1 PUSH1 0xC0 DUP7 ADD MSTORE DUP5 DUP2 SUB PUSH1 0xE0 DUP7 ADD MSTORE PUSH2 0x1D3 SWAP2 PUSH2 0x1136 JUMP JUMPDEST SWAP2 PUSH2 0x100 DUP5 ADD MSTORE PUSH1 0xFF DUP2 AND ISZERO ISZERO PUSH2 0x120 DUP5 ADD MSTORE PUSH2 0xFFFF SWAP1 DUP2 DUP2 PUSH1 0x8 SHR AND PUSH2 0x140 DUP6 ADD MSTORE DUP2 DUP2 PUSH1 0x18 SHR AND PUSH2 0x160 DUP6 ADD MSTORE PUSH1 0x28 SHR AND PUSH2 0x180 DUP4 ADD MSTORE SUB SWAP1 RETURN JUMPDEST CALLVALUE PUSH2 0xBE JUMPI PUSH1 0x0 CALLDATASIZE PUSH1 0x3 NOT ADD SLT PUSH2 0xBE JUMPI PUSH1 0x3 SLOAD PUSH1 0x40 MLOAD PUSH1 0x1 PUSH1 0x1 PUSH1 0xA0 SHL SUB SWAP1 SWAP2 AND DUP2 MSTORE PUSH1 0x20 SWAP1 RETURN JUMPDEST CALLVALUE PUSH2 0xBE JUMPI PUSH1 0x0 CALLDATASIZE PUSH1 0x3 NOT ADD SLT PUSH2 0xBE JUMPI PUSH1 0x20 PUSH1 0x40 MLOAD PUSH2 0x2710 DUP2 MSTORE RETURN JUMPDEST CALLVALUE PUSH2 0xBE JUMPI PUSH1 0x0 CALLDATASIZE PUSH1 0x3 NOT ADD SLT PUSH2 0xBE JUMPI PUSH1 0x1 SLOAD PUSH1 0x40 MLOAD PUSH1 0x1 PUSH1 0x1 PUSH1 0xA0 SHL SUB SWAP1 SWAP2 AND DUP2 MSTORE PUSH1 0x20 SWAP1 RETURN JUMPDEST CALLVALUE PUSH2 0xBE JUMPI PUSH1 0x40 CALLDATASIZE PUSH1 0x3 NOT ADD SLT PUSH2 0xBE JUMPI PUSH2 0x298 PUSH2 0x1120 JUMP JUMPDEST PUSH1 0x1 PUSH1 0x1 PUSH1 0xA0 SHL SUB AND PUSH1 0x0 SWAP1 DUP2 MSTORE PUSH1 0x2 PUSH1 0x20 MSTORE PUSH1 0x40 SWAP1 KECCAK256 DUP1 SLOAD PUSH1 0x24 CALLDATALOAD SWAP2 SWAP1 DUP3 LT ISZERO PUSH2 0xBE JUMPI PUSH1 0x20 SWAP2 PUSH2 0x2C9 SWAP2 PUSH2 0x1176 JUMP JUMPDEST SWAP1 SLOAD PUSH1 0x40 MLOAD SWAP2 PUSH1 0x3 SHL SHR DUP2 MSTORE RETURN JUMPDEST CALLVALUE PUSH2 0xBE JUMPI PUSH1 0x20 CALLDATASIZE PUSH1 0x3 NOT ADD SLT PUSH2 0xBE JUMPI PUSH2 0x360 PUSH1 0x4 CALLDATALOAD PUSH1 0x0 PUSH2 0x180 PUSH1 0x40 MLOAD PUSH2 0x2FF DUP2 PUSH2 0x122C JUMP JUMPDEST DUP3 DUP2 MSTORE DUP3 PUSH1 0x20 DUP3 ADD MSTORE PUSH1 0x60 PUSH1 0x40 DUP3 ADD MSTORE PUSH1 0x60 DUP1 DUP3 ADD MSTORE PUSH1 0x60 PUSH1 0x80 DUP3 ADD MSTORE PUSH1 0x60 PUSH1 0xA0 DUP3 ADD MSTORE DUP3 PUSH1 0xC0 DUP3 ADD MSTORE PUSH1 0x60 PUSH1 0xE0 DUP3 ADD MSTORE DUP3 PUSH2 0x100 DUP3 ADD MSTORE DUP3 PUSH2 0x120 DUP3 ADD MSTORE DUP3 PUSH2 0x140 DUP3 ADD MSTORE DUP3 PUSH2 0x160 DUP3 ADD MSTORE ADD MSTORE PUSH2 0x35B PUSH1 0x0 SLOAD DUP3 LT PUSH2 0x1381 JUMP JUMPDEST PUSH2 0x11A4 JUMP JUMPDEST POP PUSH2 0xFFFF PUSH1 0x9 PUSH1 0x40 MLOAD SWAP3 PUSH2 0x373 DUP5 PUSH2 0x122C JUMP JUMPDEST DUP1 SLOAD DUP5 MSTORE PUSH1 0x1 DUP2 ADD SLOAD PUSH1 0x1 PUSH1 0x1 PUSH1 0xA0 SHL SUB AND PUSH1 0x20 DUP6 ADD MSTORE PUSH2 0x396 PUSH1 0x2 DUP3 ADD PUSH2 0x1269 JUMP JUMPDEST PUSH1 0x40 DUP6 ADD MSTORE PUSH2 0x3A7 PUSH1 0x3 DUP3 ADD PUSH2 0x1269 JUMP JUMPDEST PUSH1 0x60 DUP6 ADD MSTORE PUSH2 0x3B8 PUSH1 0x4 DUP3 ADD PUSH2 0x1269 JUMP JUMPDEST PUSH1 0x80 DUP6 ADD MSTORE PUSH2 0x3C9 PUSH1 0x5 DUP3 ADD PUSH2 0x1269 JUMP JUMPDEST PUSH1 0xA0 DUP6 ADD MSTORE PUSH1 0x6 DUP2 ADD SLOAD PUSH1 0xC0 DUP6 ADD MSTORE PUSH2 0x3E4 PUSH1 0x7 DUP3 ADD PUSH2 0x1269 JUMP JUMPDEST PUSH1 0xE0 DUP6 ADD MSTORE PUSH1 0x8 DUP2 ADD SLOAD PUSH2 0x100 DUP6 ADD MSTORE ADD SLOAD PUSH1 0xFF DUP2 AND ISZERO ISZERO PUSH2 0x120 DUP5 ADD MSTORE DUP2 DUP2 PUSH1 0x8 SHR AND PUSH2 0x140 DUP5 ADD MSTORE DUP2 DUP2 PUSH1 0x18 SHR AND PUSH2 0x160 DUP5 ADD MSTORE PUSH1 0x28 SHR AND PUSH2 0x180 DUP3 ADD MSTORE PUSH1 0x40 MLOAD DUP1 SWAP2 PUSH1 0x20 DUP3 MSTORE DUP1 MLOAD PUSH1 0x20 DUP4 ADD MSTORE PUSH1 0x1 DUP1 PUSH1 0xA0 SHL SUB PUSH1 0x20 DUP3 ADD MLOAD AND PUSH1 0x40 DUP4 ADD MSTORE PUSH2 0xFFFF PUSH2 0x180 PUSH2 0x4D4 PUSH2 0x46A PUSH1 0x40 DUP6 ADD MLOAD PUSH2 0x1A0 PUSH1 0x60 DUP9 ADD MSTORE PUSH2 0x1C0 DUP8 ADD SWAP1 PUSH2 0x1136 JUMP JUMPDEST PUSH2 0x4B4 PUSH2 0x4A0 PUSH2 0x48C PUSH1 0x60 DUP9 ADD MLOAD SWAP4 PUSH1 0x1F NOT SWAP5 DUP6 DUP12 DUP4 SUB ADD PUSH1 0x80 DUP13 ADD MSTORE PUSH2 0x1136 JUMP JUMPDEST PUSH1 0x80 DUP9 ADD MLOAD DUP5 DUP11 DUP4 SUB ADD PUSH1 0xA0 DUP12 ADD MSTORE PUSH2 0x1136 JUMP JUMPDEST PUSH1 0xA0 DUP8 ADD MLOAD DUP4 DUP10 DUP4 SUB ADD PUSH1 0xC0 DUP11 ADD MSTORE PUSH2 0x1136 JUMP JUMPDEST SWAP1 PUSH1 0xC0 DUP7 ADD MLOAD PUSH1 0xE0 DUP9 ADD MSTORE PUSH1 0xE0 DUP7 ADD MLOAD SWAP1 DUP8 DUP4 SUB ADD PUSH2 0x100 DUP9 ADD MSTORE PUSH2 0x1136 JUMP JUMPDEST SWAP3 PUSH2 0x100 DUP2 ADD MLOAD PUSH2 0x120 DUP7 ADD MSTORE PUSH2 0x120 DUP2 ADD MLOAD ISZERO ISZERO PUSH2 0x140 DUP7 ADD MSTORE DUP3 PUSH2 0x140 DUP3 ADD MLOAD AND PUSH2 0x160 DUP7 ADD MSTORE DUP3 PUSH2 0x160 DUP3 ADD MLOAD AND DUP3 DUP7 ADD MSTORE ADD MLOAD AND PUSH2 0x1A0 DUP4 ADD MSTORE SUB SWAP1 RETURN JUMPDEST CALLVALUE PUSH2 0xBE JUMPI PUSH1 0x20 CALLDATASIZE PUSH1 0x3 NOT ADD SLT PUSH2 0xBE JUMPI PUSH1 0x4 CALLDATALOAD PUSH2 0x537 PUSH1 0x0 SLOAD DUP3 LT PUSH2 0x1381 JUMP JUMPDEST PUSH1 0x1 PUSH2 0x542 DUP3 PUSH2 0x11A4 JUMP JUMPDEST POP DUP2 DUP1 PUSH1 0xA0 SHL SUB SWAP2 DUP3 SWAP2 ADD SLOAD AND CALLER EQ SWAP1 DUP2 ISZERO PUSH2 0x5AC JUMPI JUMPDEST POP ISZERO PUSH2 0x576 JUMPI PUSH2 0x56A PUSH1 0x9 SWAP2 PUSH2 0x11A4 JUMP JUMPDEST POP ADD DUP1 SLOAD PUSH1 0xFF NOT AND SWAP1 SSTORE STOP JUMPDEST PUSH1 0x40 MLOAD PUSH3 0x461BCD PUSH1 0xE5 SHL DUP2 MSTORE PUSH1 0x20 PUSH1 0x4 DUP3 ADD MSTORE PUSH1 0xE PUSH1 0x24 DUP3 ADD MSTORE PUSH14 0x139BDD08185D5D1A1BDC9A5E9959 PUSH1 0x92 SHL PUSH1 0x44 DUP3 ADD MSTORE PUSH1 0x64 SWAP1 REVERT JUMPDEST SWAP1 POP PUSH1 0x3 SLOAD AND CALLER EQ DUP3 PUSH2 0x559 JUMP JUMPDEST CALLVALUE PUSH2 0xBE JUMPI PUSH1 0x20 DUP1 PUSH1 0x3 NOT CALLDATASIZE ADD SLT PUSH2 0xBE JUMPI PUSH1 0x1 PUSH1 0x1 PUSH1 0xA0 SHL SUB PUSH2 0x5DC PUSH2 0x1120 JUMP JUMPDEST AND PUSH1 0x0 MSTORE PUSH1 0x2 DUP2 MSTORE PUSH1 0x40 PUSH1 0x0 KECCAK256 PUSH1 0x40 MLOAD SWAP1 DUP2 DUP4 DUP3 SLOAD SWAP2 DUP3 DUP2 MSTORE ADD SWAP1 DUP2 SWAP3 PUSH1 0x0 MSTORE DUP5 PUSH1 0x0 KECCAK256 SWAP1 PUSH1 0x0 JUMPDEST DUP7 DUP3 DUP3 LT PUSH2 0x65A JUMPI DUP7 DUP7 PUSH2 0x61A DUP3 DUP9 SUB DUP4 PUSH2 0x1248 JUMP JUMPDEST PUSH1 0x40 MLOAD SWAP3 DUP4 SWAP3 DUP2 DUP5 ADD SWAP1 DUP3 DUP6 MSTORE MLOAD DUP1 SWAP2 MSTORE PUSH1 0x40 DUP5 ADD SWAP3 SWAP2 PUSH1 0x0 JUMPDEST DUP3 DUP2 LT PUSH2 0x643 JUMPI POP POP POP POP SUB SWAP1 RETURN JUMPDEST DUP4 MLOAD DUP6 MSTORE DUP7 SWAP6 POP SWAP4 DUP2 ADD SWAP4 SWAP3 DUP2 ADD SWAP3 PUSH1 0x1 ADD PUSH2 0x634 JUMP JUMPDEST DUP4 SLOAD DUP6 MSTORE SWAP1 SWAP4 ADD SWAP3 PUSH1 0x1 SWAP3 DUP4 ADD SWAP3 ADD PUSH2 0x604 JUMP JUMPDEST CALLVALUE PUSH2 0xBE JUMPI PUSH2 0x120 CALLDATASIZE PUSH1 0x3 NOT ADD SLT PUSH2 0xBE JUMPI PUSH1 0x4 CALLDATALOAD PUSH1 0x1 PUSH1 0x1 PUSH1 0x40 SHL SUB DUP2 GT PUSH2 0xBE JUMPI PUSH2 0x69F SWAP1 CALLDATASIZE SWAP1 PUSH1 0x4 ADD PUSH2 0x10F3 JUMP JUMPDEST PUSH1 0x24 CALLDATALOAD PUSH1 0x1 PUSH1 0x1 PUSH1 0x40 SHL SUB DUP2 GT PUSH2 0xBE JUMPI PUSH2 0x6BE SWAP1 CALLDATASIZE SWAP1 PUSH1 0x4 ADD PUSH2 0x10F3 JUMP JUMPDEST PUSH1 0x44 SWAP3 SWAP2 SWAP3 CALLDATALOAD PUSH1 0x1 PUSH1 0x1 PUSH1 0x40 SHL SUB DUP2 GT PUSH2 0xBE JUMPI PUSH2 0x6E0 SWAP1 CALLDATASIZE SWAP1 PUSH1 0x4 ADD PUSH2 0x10F3 JUMP JUMPDEST SWAP1 PUSH1 0x64 CALLDATALOAD PUSH1 0x1 PUSH1 0x1 PUSH1 0x40 SHL SUB DUP2 GT PUSH2 0xBE JUMPI PUSH2 0x700 SWAP1 CALLDATASIZE SWAP1 PUSH1 0x4 ADD PUSH2 0x10F3 JUMP JUMPDEST PUSH1 0xA4 CALLDATALOAD PUSH1 0x1 PUSH1 0x1 PUSH1 0x40 SHL SUB DUP2 GT PUSH2 0xBE JUMPI PUSH2 0x71F SWAP1 CALLDATASIZE SWAP1 PUSH1 0x4 ADD PUSH2 0x10F3 JUMP JUMPDEST SWAP4 SWAP1 SWAP5 PUSH2 0xFFFF PUSH1 0xC4 CALLDATALOAD AND PUSH1 0xC4 CALLDATALOAD SUB PUSH2 0xBE JUMPI PUSH2 0xFFFF PUSH1 0xE4 CALLDATALOAD AND PUSH1 0xE4 CALLDATALOAD SUB PUSH2 0xBE JUMPI PUSH2 0xFFFF PUSH2 0x104 CALLDATALOAD AND PUSH2 0x104 CALLDATALOAD SUB PUSH2 0xBE JUMPI PUSH1 0x1 SLOAD PUSH4 0x6B2F65B PUSH1 0xE4 SHL PUSH1 0x80 SWAP1 DUP2 MSTORE CALLER PUSH1 0x84 MSTORE PUSH1 0x20 SWAP2 PUSH1 0x24 SWAP1 DUP3 SWAP1 PUSH1 0x1 PUSH1 0x1 PUSH1 0xA0 SHL SUB AND GAS STATICCALL DUP1 ISZERO PUSH2 0x10E7 JUMPI PUSH1 0x0 SWAP1 PUSH2 0x10B0 JUMPI JUMPDEST ISZERO PUSH2 0x106B JUMPI DUP8 ISZERO PUSH2 0x1035 JUMPI DUP1 ISZERO PUSH2 0xFFB JUMPI PUSH2 0x2710 PUSH2 0xFFFF PUSH2 0x7B7 PUSH2 0x104 CALLDATALOAD PUSH2 0x7B2 PUSH1 0xE4 CALLDATALOAD PUSH1 0xC4 CALLDATALOAD PUSH2 0x130F JUMP JUMPDEST PUSH2 0x130F JUMP JUMPDEST AND SUB PUSH2 0xFBD JUMPI PUSH1 0x0 SLOAD SWAP9 PUSH1 0x40 MLOAD SWAP8 PUSH2 0x7CE DUP10 PUSH2 0x122C JUMP JUMPDEST DUP11 DUP10 MSTORE CALLER PUSH1 0x20 DUP11 ADD MSTORE PUSH2 0x7E2 CALLDATASIZE DUP12 DUP15 PUSH2 0x133B JUMP JUMPDEST PUSH1 0x40 DUP11 ADD MSTORE CALLDATASIZE SWAP1 PUSH2 0x7F2 SWAP3 PUSH2 0x133B JUMP JUMPDEST PUSH1 0x60 DUP9 ADD MSTORE CALLDATASIZE SWAP1 PUSH2 0x802 SWAP3 PUSH2 0x133B JUMP JUMPDEST PUSH1 0x80 DUP7 ADD MSTORE CALLDATASIZE SWAP1 PUSH2 0x812 SWAP3 PUSH2 0x133B JUMP JUMPDEST PUSH1 0xA0 DUP5 ADD MSTORE PUSH1 0x84 CALLDATALOAD PUSH1 0xC0 DUP5 ADD MSTORE CALLDATASIZE SWAP1 PUSH2 0x82A SWAP3 PUSH2 0x133B JUMP JUMPDEST PUSH1 0xE0 DUP3 ADD MSTORE TIMESTAMP PUSH2 0x100 DUP3 ADD MSTORE PUSH1 0x1 PUSH2 0x120 DUP3 ADD MSTORE PUSH2 0xFFFF PUSH1 0xC4 CALLDATALOAD DUP2 AND PUSH2 0x140 DUP4 ADD MSTORE PUSH1 0xE4 CALLDATALOAD DUP2 AND PUSH2 0x160 DUP4 ADD MSTORE PUSH2 0x104 CALLDATALOAD AND PUSH2 0x180 DUP3 ADD MSTORE PUSH1 0x1 PUSH1 0x40 SHL DUP4 LT ISZERO PUSH2 0xB8C JUMPI PUSH1 0x1 DUP4 ADD PUSH1 0x0 SSTORE PUSH2 0x87E DUP4 PUSH2 0x11A4 JUMP JUMPDEST PUSH2 0xFA7 JUMPI DUP2 MLOAD DUP2 SSTORE PUSH1 0x1 DUP2 ADD PUSH1 0x1 DUP1 PUSH1 0xA0 SHL SUB PUSH1 0x20 DUP5 ADD MLOAD AND PUSH12 0xFFFFFFFFFFFFFFFFFFFFFFFF PUSH1 0xA0 SHL DUP3 SLOAD AND OR SWAP1 SSTORE PUSH1 0x40 DUP3 ADD MLOAD DUP1 MLOAD SWAP1 PUSH1 0x1 PUSH1 0x1 PUSH1 0x40 SHL SUB DUP3 GT PUSH2 0xB8C JUMPI DUP2 SWAP1 PUSH2 0x8D2 PUSH1 0x2 DUP6 ADD SLOAD PUSH2 0x11F2 JUMP JUMPDEST PUSH1 0x1F DUP2 GT PUSH2 0xF54 JUMPI JUMPDEST POP PUSH1 0x20 SWAP1 PUSH1 0x1F DUP4 GT PUSH1 0x1 EQ PUSH2 0xEE2 JUMPI PUSH1 0x0 SWAP3 PUSH2 0xED7 JUMPI JUMPDEST POP POP DUP2 PUSH1 0x1 SHL SWAP2 PUSH1 0x0 NOT SWAP1 PUSH1 0x3 SHL SHR NOT AND OR PUSH1 0x2 DUP3 ADD SSTORE JUMPDEST PUSH1 0x60 DUP3 ADD MLOAD DUP1 MLOAD SWAP1 PUSH1 0x1 PUSH1 0x1 PUSH1 0x40 SHL SUB DUP3 GT PUSH2 0xB8C JUMPI DUP2 SWAP1 PUSH2 0x92F PUSH1 0x3 DUP6 ADD SLOAD PUSH2 0x11F2 JUMP JUMPDEST PUSH1 0x1F DUP2 GT PUSH2 0xE84 JUMPI JUMPDEST POP PUSH1 0x20 SWAP1 PUSH1 0x1F DUP4 GT PUSH1 0x1 EQ PUSH2 0xE12 JUMPI PUSH1 0x0 SWAP3 PUSH2 0xE07 JUMPI JUMPDEST POP POP DUP2 PUSH1 0x1 SHL SWAP2 PUSH1 0x0 NOT SWAP1 PUSH1 0x3 SHL SHR NOT AND OR PUSH1 0x3 DUP3 ADD SSTORE JUMPDEST PUSH1 0x80 DUP3 ADD MLOAD DUP1 MLOAD SWAP1 PUSH1 0x1 PUSH1 0x1 PUSH1 0x40 SHL SUB DUP3 GT PUSH2 0xB8C JUMPI DUP2 SWAP1 PUSH2 0x98C PUSH1 0x4 DUP6 ADD SLOAD PUSH2 0x11F2 JUMP JUMPDEST PUSH1 0x1F DUP2 GT PUSH2 0xDB4 JUMPI JUMPDEST POP PUSH1 0x20 SWAP1 PUSH1 0x1F DUP4 GT PUSH1 0x1 EQ PUSH2 0xD42 JUMPI PUSH1 0x0 SWAP3 PUSH2 0xD37 JUMPI JUMPDEST POP POP DUP2 PUSH1 0x1 SHL SWAP2 PUSH1 0x0 NOT SWAP1 PUSH1 0x3 SHL SHR NOT AND OR PUSH1 0x4 DUP3 ADD SSTORE JUMPDEST PUSH1 0xA0 DUP3 ADD MLOAD DUP1 MLOAD SWAP1 PUSH1 0x1 PUSH1 0x1 PUSH1 0x40 SHL SUB DUP3 GT PUSH2 0xB8C JUMPI DUP2 SWAP1 PUSH2 0x9E9 PUSH1 0x5 DUP6 ADD SLOAD PUSH2 0x11F2 JUMP JUMPDEST PUSH1 0x1F DUP2 GT PUSH2 0xCE4 JUMPI JUMPDEST POP PUSH1 0x20 SWAP1 PUSH1 0x1F DUP4 GT PUSH1 0x1 EQ PUSH2 0xC72 JUMPI PUSH1 0x0 SWAP3 PUSH2 0xC67 JUMPI JUMPDEST POP POP DUP2 PUSH1 0x1 SHL SWAP2 PUSH1 0x0 NOT SWAP1 PUSH1 0x3 SHL SHR NOT AND OR PUSH1 0x5 DUP3 ADD SSTORE JUMPDEST PUSH1 0xC0 DUP3 ADD MLOAD PUSH1 0x6 DUP3 ADD SSTORE PUSH1 0xE0 DUP3 ADD MLOAD DUP1 MLOAD SWAP1 PUSH1 0x1 PUSH1 0x1 PUSH1 0x40 SHL SUB DUP3 GT PUSH2 0xB8C JUMPI PUSH2 0xA4E PUSH1 0x7 DUP5 ADD SLOAD PUSH2 0x11F2 JUMP JUMPDEST PUSH1 0x1F DUP2 GT PUSH2 0xC20 JUMPI JUMPDEST POP PUSH1 0x20 SWAP1 PUSH1 0x1F DUP4 GT PUSH1 0x1 EQ PUSH2 0xBAD JUMPI PUSH1 0x9 SWAP4 SWAP3 SWAP2 PUSH1 0x0 SWAP2 DUP4 PUSH2 0xBA2 JUMPI JUMPDEST POP POP DUP2 PUSH1 0x1 SHL SWAP2 PUSH1 0x0 NOT SWAP1 PUSH1 0x3 SHL SHR NOT AND OR PUSH1 0x7 DUP3 ADD SSTORE JUMPDEST PUSH2 0x100 DUP4 ADD MLOAD PUSH1 0x8 DUP3 ADD SSTORE ADD SWAP1 PUSH2 0x120 DUP2 ADD MLOAD ISZERO ISZERO SWAP1 DUP3 SLOAD PUSH3 0xFFFF00 PUSH2 0x140 DUP4 ADD MLOAD PUSH1 0x8 SHL AND SWAP1 PUSH1 0xFF PUSH7 0xFFFF0000000000 PUSH2 0x180 PUSH5 0xFFFF000000 PUSH2 0x160 DUP8 ADD MLOAD PUSH1 0x18 SHL AND SWAP6 ADD MLOAD PUSH1 0x28 SHL AND SWAP5 AND SWAP1 PUSH7 0xFFFFFFFFFFFFFF NOT AND OR OR OR OR SWAP1 SSTORE CALLER PUSH1 0x0 MSTORE PUSH1 0x2 PUSH1 0x20 MSTORE PUSH1 0x40 PUSH1 0x0 KECCAK256 DUP1 SLOAD PUSH1 0x1 PUSH1 0x40 SHL DUP2 LT ISZERO PUSH2 0xB8C JUMPI PUSH1 0x20 SWAP5 PUSH2 0xB3B DUP3 DUP7 SWAP5 PUSH1 0x1 PUSH32 0xCDE08F0D3B4BB15D307A0359E563C6B750B18F0DEE87B6CC1FE8491A910866B5 SWAP6 ADD DUP2 SSTORE PUSH2 0x1176 JUMP JUMPDEST DUP2 SLOAD SWAP1 PUSH1 0x3 SHL SWAP1 DUP6 DUP3 SHL SWAP2 PUSH1 0x0 NOT SWAP1 SHL NOT AND OR SWAP1 SSTORE DUP4 PUSH1 0x40 MLOAD SWAP2 PUSH1 0x40 DUP4 MSTORE DUP2 PUSH1 0x40 DUP5 ADD MSTORE PUSH1 0x60 DUP4 ADD CALLDATACOPY PUSH1 0x0 PUSH1 0x60 DUP6 DUP4 ADD ADD MSTORE TIMESTAMP DUP7 DUP3 ADD MSTORE PUSH1 0x60 DUP2 CALLER SWAP6 PUSH1 0x1F DUP1 NOT SWAP2 ADD AND DUP2 ADD SUB ADD SWAP1 LOG3 PUSH1 0x40 MLOAD SWAP1 DUP2 MSTORE RETURN JUMPDEST PUSH4 0x4E487B71 PUSH1 0xE0 SHL PUSH1 0x0 MSTORE PUSH1 0x41 PUSH1 0x4 MSTORE PUSH1 0x24 PUSH1 0x0 REVERT JUMPDEST ADD MLOAD SWAP1 POP DUP9 DUP1 PUSH2 0xA74 JUMP JUMPDEST SWAP1 PUSH1 0x7 DUP5 ADD PUSH1 0x0 MSTORE PUSH1 0x20 PUSH1 0x0 KECCAK256 SWAP2 PUSH1 0x0 JUMPDEST PUSH1 0x1F NOT DUP6 AND DUP2 LT PUSH2 0xC08 JUMPI POP SWAP2 DUP4 SWAP2 PUSH1 0x1 SWAP4 PUSH1 0x9 SWAP7 SWAP6 PUSH1 0x1F NOT DUP2 AND LT PUSH2 0xBEF JUMPI JUMPDEST POP POP POP DUP2 SHL ADD PUSH1 0x7 DUP3 ADD SSTORE PUSH2 0xA8C JUMP JUMPDEST ADD MLOAD PUSH1 0x0 NOT PUSH1 0xF8 DUP5 PUSH1 0x3 SHL AND SHR NOT AND SWAP1 SSTORE DUP9 DUP1 DUP1 PUSH2 0xBDF JUMP JUMPDEST SWAP2 SWAP3 PUSH1 0x20 PUSH1 0x1 DUP2 SWAP3 DUP7 DUP6 ADD MLOAD DUP2 SSTORE ADD SWAP5 ADD SWAP3 ADD PUSH2 0xBBE JUMP JUMPDEST PUSH1 0x7 DUP5 ADD PUSH1 0x0 MSTORE PUSH1 0x20 PUSH1 0x0 KECCAK256 PUSH1 0x1F DUP5 ADD PUSH1 0x5 SHR DUP2 ADD PUSH1 0x20 DUP6 LT PUSH2 0xC60 JUMPI JUMPDEST PUSH1 0x1F DUP4 ADD PUSH1 0x5 SHR DUP3 ADD DUP2 LT PUSH2 0xC54 JUMPI POP POP PUSH2 0xA57 JUMP JUMPDEST PUSH1 0x0 DUP2 SSTORE PUSH1 0x1 ADD PUSH2 0xC3E JUMP JUMPDEST POP DUP1 PUSH2 0xC3E JUMP JUMPDEST ADD MLOAD SWAP1 POP DUP8 DUP1 PUSH2 0xA09 JUMP JUMPDEST SWAP3 POP PUSH1 0x5 DUP5 ADD PUSH1 0x0 MSTORE PUSH1 0x20 PUSH1 0x0 KECCAK256 SWAP1 PUSH1 0x0 SWAP4 JUMPDEST PUSH1 0x1F NOT DUP5 AND DUP6 LT PUSH2 0xCC9 JUMPI PUSH1 0x1 SWAP5 POP DUP4 PUSH1 0x1F NOT DUP2 AND LT PUSH2 0xCB0 JUMPI JUMPDEST POP POP POP DUP2 SHL ADD PUSH1 0x5 DUP3 ADD SSTORE PUSH2 0xA21 JUMP JUMPDEST ADD MLOAD PUSH1 0x0 NOT PUSH1 0xF8 DUP5 PUSH1 0x3 SHL AND SHR NOT AND SWAP1 SSTORE DUP8 DUP1 DUP1 PUSH2 0xCA0 JUMP JUMPDEST DUP2 DUP2 ADD MLOAD DUP4 SSTORE PUSH1 0x20 SWAP5 DUP6 ADD SWAP5 PUSH1 0x1 SWAP1 SWAP4 ADD SWAP3 SWAP1 SWAP2 ADD SWAP1 PUSH2 0xC85 JUMP JUMPDEST SWAP1 SWAP2 POP PUSH1 0x5 DUP5 ADD PUSH1 0x0 MSTORE PUSH1 0x20 PUSH1 0x0 KECCAK256 PUSH1 0x1F DUP5 ADD PUSH1 0x5 SHR DUP2 ADD PUSH1 0x20 DUP6 LT PUSH2 0xD30 JUMPI JUMPDEST SWAP1 DUP5 SWAP4 SWAP3 SWAP2 JUMPDEST PUSH1 0x1F DUP4 ADD PUSH1 0x5 SHR DUP3 ADD DUP2 LT PUSH2 0xD21 JUMPI POP POP PUSH2 0x9F2 JUMP JUMPDEST PUSH1 0x0 DUP2 SSTORE DUP6 SWAP5 POP PUSH1 0x1 ADD PUSH2 0xD0B JUMP JUMPDEST POP DUP1 PUSH2 0xD05 JUMP JUMPDEST ADD MLOAD SWAP1 POP DUP8 DUP1 PUSH2 0x9AC JUMP JUMPDEST SWAP3 POP PUSH1 0x4 DUP5 ADD PUSH1 0x0 MSTORE PUSH1 0x20 PUSH1 0x0 KECCAK256 SWAP1 PUSH1 0x0 SWAP4 JUMPDEST PUSH1 0x1F NOT DUP5 AND DUP6 LT PUSH2 0xD99 JUMPI PUSH1 0x1 SWAP5 POP DUP4 PUSH1 0x1F NOT DUP2 AND LT PUSH2 0xD80 JUMPI JUMPDEST POP POP POP DUP2 SHL ADD PUSH1 0x4 DUP3 ADD SSTORE PUSH2 0x9C4 JUMP JUMPDEST ADD MLOAD PUSH1 0x0 NOT PUSH1 0xF8 DUP5 PUSH1 0x3 SHL AND SHR NOT AND SWAP1 SSTORE DUP8 DUP1 DUP1 PUSH2 0xD70 JUMP JUMPDEST DUP2 DUP2 ADD MLOAD DUP4 SSTORE PUSH1 0x20 SWAP5 DUP6 ADD SWAP5 PUSH1 0x1 SWAP1 SWAP4 ADD SWAP3 SWAP1 SWAP2 ADD SWAP1 PUSH2 0xD55 JUMP JUMPDEST SWAP1 SWAP2 POP PUSH1 0x4 DUP5 ADD PUSH1 0x0 MSTORE PUSH1 0x20 PUSH1 0x0 KECCAK256 PUSH1 0x1F DUP5 ADD PUSH1 0x5 SHR DUP2 ADD PUSH1 0x20 DUP6 LT PUSH2 0xE00 JUMPI JUMPDEST SWAP1 DUP5 SWAP4 SWAP3 SWAP2 JUMPDEST PUSH1 0x1F DUP4 ADD PUSH1 0x5 SHR DUP3 ADD DUP2 LT PUSH2 0xDF1 JUMPI POP POP PUSH2 0x995 JUMP JUMPDEST PUSH1 0x0 DUP2 SSTORE DUP6 SWAP5 POP PUSH1 0x1 ADD PUSH2 0xDDB JUMP JUMPDEST POP DUP1 PUSH2 0xDD5 JUMP JUMPDEST ADD MLOAD SWAP1 POP DUP8 DUP1 PUSH2 0x94F JUMP JUMPDEST SWAP3 POP PUSH1 0x3 DUP5 ADD PUSH1 0x0 MSTORE PUSH1 0x20 PUSH1 0x0 KECCAK256 SWAP1 PUSH1 0x0 SWAP4 JUMPDEST PUSH1 0x1F NOT DUP5 AND DUP6 LT PUSH2 0xE69 JUMPI PUSH1 0x1 SWAP5 POP DUP4 PUSH1 0x1F NOT DUP2 AND LT PUSH2 0xE50 JUMPI JUMPDEST POP POP POP DUP2 SHL ADD PUSH1 0x3 DUP3 ADD SSTORE PUSH2 0x967 JUMP JUMPDEST ADD MLOAD PUSH1 0x0 NOT PUSH1 0xF8 DUP5 PUSH1 0x3 SHL AND SHR NOT AND SWAP1 SSTORE DUP8 DUP1 DUP1 PUSH2 0xE40 JUMP JUMPDEST DUP2 DUP2 ADD MLOAD DUP4 SSTORE PUSH1 0x20 SWAP5 DUP6 ADD SWAP5 PUSH1 0x1 SWAP1 SWAP4 ADD SWAP3 SWAP1 SWAP2 ADD SWAP1 PUSH2 0xE25 JUMP JUMPDEST SWAP1 SWAP2 POP PUSH1 0x3 DUP5 ADD PUSH1 0x0 MSTORE PUSH1 0x20 PUSH1 0x0 KECCAK256 PUSH1 0x1F DUP5 ADD PUSH1 0x5 SHR DUP2 ADD PUSH1 0x20 DUP6 LT PUSH2 0xED0 JUMPI JUMPDEST SWAP1 DUP5 SWAP4 SWAP3 SWAP2 JUMPDEST PUSH1 0x1F DUP4 ADD PUSH1 0x5 SHR DUP3 ADD DUP2 LT PUSH2 0xEC1 JUMPI POP POP PUSH2 0x938 JUMP JUMPDEST PUSH1 0x0 DUP2 SSTORE DUP6 SWAP5 POP PUSH1 0x1 ADD PUSH2 0xEAB JUMP JUMPDEST POP DUP1 PUSH2 0xEA5 JUMP JUMPDEST ADD MLOAD SWAP1 POP DUP8 DUP1 PUSH2 0x8F2 JUMP JUMPDEST SWAP3 POP PUSH1 0x2 DUP5 ADD PUSH1 0x0 MSTORE PUSH1 0x20 PUSH1 0x0 KECCAK256 SWAP1 PUSH1 0x0 SWAP4 JUMPDEST PUSH1 0x1F NOT DUP5 AND DUP6 LT PUSH2 0xF39 JUMPI PUSH1 0x1 SWAP5 POP DUP4 PUSH1 0x1F NOT DUP2 AND LT PUSH2 0xF20 JUMPI JUMPDEST POP POP POP DUP2 SHL ADD PUSH1 0x2 DUP3 ADD SSTORE PUSH2 0x90A JUMP JUMPDEST ADD MLOAD PUSH1 0x0 NOT PUSH1 0xF8 DUP5 PUSH1 0x3 SHL AND SHR NOT AND SWAP1 SSTORE DUP8 DUP1 DUP1 PUSH2 0xF10 JUMP JUMPDEST DUP2 DUP2 ADD MLOAD DUP4 SSTORE PUSH1 0x20 SWAP5 DUP6 ADD SWAP5 PUSH1 0x1 SWAP1 SWAP4 ADD SWAP3 SWAP1 SWAP2 ADD SWAP1 PUSH2 0xEF5 JUMP JUMPDEST SWAP1 SWAP2 POP PUSH1 0x2 DUP5 ADD PUSH1 0x0 MSTORE PUSH1 0x20 PUSH1 0x0 KECCAK256 PUSH1 0x1F DUP5 ADD PUSH1 0x5 SHR DUP2 ADD PUSH1 0x20 DUP6 LT PUSH2 0xFA0 JUMPI JUMPDEST SWAP1 DUP5 SWAP4 SWAP3 SWAP2 JUMPDEST PUSH1 0x1F DUP4 ADD PUSH1 0x5 SHR DUP3 ADD DUP2 LT PUSH2 0xF91 JUMPI POP POP PUSH2 0x8DB JUMP JUMPDEST PUSH1 0x0 DUP2 SSTORE DUP6 SWAP5 POP PUSH1 0x1 ADD PUSH2 0xF7B JUMP JUMPDEST POP DUP1 PUSH2 0xF75 JUMP JUMPDEST PUSH4 0x4E487B71 PUSH1 0xE0 SHL PUSH1 0x0 MSTORE PUSH1 0x0 PUSH1 0x4 MSTORE PUSH1 0x24 PUSH1 0x0 REVERT JUMPDEST PUSH1 0x40 MLOAD PUSH3 0x461BCD PUSH1 0xE5 SHL DUP2 MSTORE PUSH1 0x20 PUSH1 0x4 DUP3 ADD MSTORE PUSH1 0x16 PUSH1 0x24 DUP3 ADD MSTORE PUSH22 0x536861726573206D75737420657175616C2031303025 PUSH1 0x50 SHL PUSH1 0x44 DUP3 ADD MSTORE PUSH1 0x64 SWAP1 REVERT JUMPDEST PUSH1 0x40 MLOAD PUSH3 0x461BCD PUSH1 0xE5 SHL DUP2 MSTORE PUSH1 0x20 PUSH1 0x4 DUP3 ADD MSTORE PUSH1 0x12 PUSH1 0x24 DUP3 ADD MSTORE PUSH18 0x105D591A5BC8155492481C995C5D5A5C9959 PUSH1 0x72 SHL PUSH1 0x44 DUP3 ADD MSTORE PUSH1 0x64 SWAP1 REVERT JUMPDEST PUSH1 0x40 MLOAD PUSH3 0x461BCD PUSH1 0xE5 SHL DUP2 MSTORE PUSH1 0x20 PUSH1 0x4 DUP3 ADD MSTORE PUSH1 0xE PUSH1 0x24 DUP3 ADD MSTORE PUSH14 0x151A5D1B19481C995C5D5A5C9959 PUSH1 0x92 SHL PUSH1 0x44 DUP3 ADD MSTORE PUSH1 0x64 SWAP1 REVERT JUMPDEST PUSH1 0x40 MLOAD PUSH3 0x461BCD PUSH1 0xE5 SHL DUP2 MSTORE PUSH1 0x20 PUSH1 0x4 DUP3 ADD MSTORE PUSH1 0x19 PUSH1 0x24 DUP3 ADD MSTORE PUSH32 0x4D75737420626520726567697374657265642061727469737400000000000000 PUSH1 0x44 DUP3 ADD MSTORE PUSH1 0x64 SWAP1 REVERT JUMPDEST POP PUSH1 0x20 RETURNDATASIZE PUSH1 0x20 GT PUSH2 0x10E0 JUMPI JUMPDEST DUP1 PUSH2 0x10CA PUSH1 0x20 SWAP3 PUSH1 0x80 PUSH2 0x1248 JUMP JUMPDEST SLT PUSH2 0xBE JUMPI PUSH1 0x80 MLOAD DUP1 ISZERO ISZERO DUP2 EQ PUSH2 0x786 JUMPI PUSH1 0x0 DUP1 REVERT JUMPDEST POP RETURNDATASIZE PUSH2 0x10BC JUMP JUMPDEST PUSH1 0x40 MLOAD RETURNDATASIZE PUSH1 0x0 DUP3 RETURNDATACOPY RETURNDATASIZE SWAP1 REVERT JUMPDEST SWAP2 DUP2 PUSH1 0x1F DUP5 ADD SLT ISZERO PUSH2 0xBE JUMPI DUP3 CALLDATALOAD SWAP2 PUSH1 0x1 PUSH1 0x1 PUSH1 0x40 SHL SUB DUP4 GT PUSH2 0xBE JUMPI PUSH1 0x20 DUP4 DUP2 DUP7 ADD SWAP6 ADD ADD GT PUSH2 0xBE JUMPI JUMP JUMPDEST PUSH1 0x4 CALLDATALOAD SWAP1 PUSH1 0x1 PUSH1 0x1 PUSH1 0xA0 SHL SUB DUP3 AND DUP3 SUB PUSH2 0xBE JUMPI JUMP JUMPDEST SWAP2 SWAP1 DUP3 MLOAD SWAP3 DUP4 DUP3 MSTORE PUSH1 0x0 JUMPDEST DUP5 DUP2 LT PUSH2 0x1162 JUMPI POP POP DUP3 PUSH1 0x0 PUSH1 0x20 DUP1 SWAP5 SWAP6 DUP5 ADD ADD MSTORE PUSH1 0x1F DUP1 NOT SWAP2 ADD AND ADD ADD SWAP1 JUMP JUMPDEST PUSH1 0x20 DUP2 DUP4 ADD DUP2 ADD MLOAD DUP5 DUP4 ADD DUP3 ADD MSTORE ADD PUSH2 0x1141 JUMP JUMPDEST DUP1 SLOAD DUP3 LT ISZERO PUSH2 0x118E JUMPI PUSH1 0x0 MSTORE PUSH1 0x20 PUSH1 0x0 KECCAK256 ADD SWAP1 PUSH1 0x0 SWAP1 JUMP JUMPDEST PUSH4 0x4E487B71 PUSH1 0xE0 SHL PUSH1 0x0 MSTORE PUSH1 0x32 PUSH1 0x4 MSTORE PUSH1 0x24 PUSH1 0x0 REVERT JUMPDEST SWAP1 PUSH1 0x0 SWAP2 DUP3 SLOAD DUP2 LT ISZERO PUSH2 0x11DE JUMPI PUSH1 0xA SWAP1 DUP4 DUP1 MSTORE MUL PUSH32 0x290DECD9548B62A8D60345A988386FC84BA6BC95484008F6362F93160EF3E563 ADD SWAP2 SWAP1 JUMP JUMPDEST PUSH4 0x4E487B71 PUSH1 0xE0 SHL DUP4 MSTORE PUSH1 0x32 PUSH1 0x4 MSTORE PUSH1 0x24 DUP4 REVERT JUMPDEST SWAP1 PUSH1 0x1 DUP3 DUP2 SHR SWAP3 AND DUP1 ISZERO PUSH2 0x1222 JUMPI JUMPDEST PUSH1 0x20 DUP4 LT EQ PUSH2 0x120C JUMPI JUMP JUMPDEST PUSH4 0x4E487B71 PUSH1 0xE0 SHL PUSH1 0x0 MSTORE PUSH1 0x22 PUSH1 0x4 MSTORE PUSH1 0x24 PUSH1 0x0 REVERT JUMPDEST SWAP2 PUSH1 0x7F AND SWAP2 PUSH2 0x1201 JUMP JUMPDEST PUSH2 0x1A0 DUP2 ADD SWAP1 DUP2 LT PUSH1 0x1 PUSH1 0x1 PUSH1 0x40 SHL SUB DUP3 GT OR PUSH2 0xB8C JUMPI PUSH1 0x40 MSTORE JUMP JUMPDEST SWAP1 PUSH1 0x1F DUP1 NOT SWAP2 ADD AND DUP2 ADD SWAP1 DUP2 LT PUSH1 0x1 PUSH1 0x1 PUSH1 0x40 SHL SUB DUP3 GT OR PUSH2 0xB8C JUMPI PUSH1 0x40 MSTORE JUMP JUMPDEST SWAP1 PUSH1 0x40 MLOAD SWAP2 DUP3 PUSH1 0x0 DUP3 SLOAD SWAP3 PUSH2 0x127D DUP5 PUSH2 0x11F2 JUMP JUMPDEST SWAP1 DUP2 DUP5 MSTORE PUSH1 0x1 SWAP5 DUP6 DUP2 AND SWAP1 DUP2 PUSH1 0x0 EQ PUSH2 0x12EC JUMPI POP PUSH1 0x1 EQ PUSH2 0x12A9 JUMPI JUMPDEST POP POP PUSH2 0x12A7 SWAP3 POP SUB DUP4 PUSH2 0x1248 JUMP JUMPDEST JUMP JUMPDEST SWAP1 SWAP4 SWAP2 POP PUSH1 0x0 MSTORE PUSH1 0x20 SWAP1 DUP2 PUSH1 0x0 KECCAK256 SWAP4 PUSH1 0x0 SWAP2 JUMPDEST DUP2 DUP4 LT PUSH2 0x12D4 JUMPI POP POP PUSH2 0x12A7 SWAP4 POP DUP3 ADD ADD CODESIZE DUP1 PUSH2 0x1299 JUMP JUMPDEST DUP6 SLOAD DUP9 DUP5 ADD DUP6 ADD MSTORE SWAP5 DUP6 ADD SWAP5 DUP8 SWAP5 POP SWAP2 DUP4 ADD SWAP2 PUSH2 0x12BC JUMP JUMPDEST SWAP2 POP POP PUSH2 0x12A7 SWAP5 POP PUSH1 0x20 SWAP3 POP PUSH1 0xFF NOT AND DUP3 DUP5 ADD MSTORE ISZERO ISZERO PUSH1 0x5 SHL DUP3 ADD ADD CODESIZE DUP1 PUSH2 0x1299 JUMP JUMPDEST SWAP2 SWAP1 SWAP2 PUSH2 0xFFFF DUP1 DUP1 SWAP5 AND SWAP2 AND ADD SWAP2 DUP3 GT PUSH2 0x1325 JUMPI JUMP JUMPDEST PUSH4 0x4E487B71 PUSH1 0xE0 SHL PUSH1 0x0 MSTORE PUSH1 0x11 PUSH1 0x4 MSTORE PUSH1 0x24 PUSH1 0x0 REVERT JUMPDEST SWAP3 SWAP2 SWAP3 PUSH1 0x1 PUSH1 0x1 PUSH1 0x40 SHL SUB DUP3 GT PUSH2 0xB8C JUMPI PUSH1 0x40 MLOAD SWAP2 PUSH2 0x1364 PUSH1 0x1F DUP3 ADD PUSH1 0x1F NOT AND PUSH1 0x20 ADD DUP5 PUSH2 0x1248 JUMP JUMPDEST DUP3 SWAP5 DUP2 DUP5 MSTORE DUP2 DUP4 ADD GT PUSH2 0xBE JUMPI DUP3 DUP2 PUSH1 0x20 SWAP4 DUP5 PUSH1 0x0 SWAP7 ADD CALLDATACOPY ADD ADD MSTORE JUMP JUMPDEST ISZERO PUSH2 0x1388 JUMPI JUMP JUMPDEST PUSH1 0x40 MLOAD PUSH3 0x461BCD PUSH1 0xE5 SHL DUP2 MSTORE PUSH1 0x20 PUSH1 0x4 DUP3 ADD MSTORE PUSH1 0xF PUSH1 0x24 DUP3 ADD MSTORE PUSH15 0x151C9858DAC81B9BDD08199BDD5B99 PUSH1 0x8A SHL PUSH1 0x44 DUP3 ADD MSTORE PUSH1 0x64 SWAP1 REVERT INVALID LOG2 PUSH5 0x6970667358 0x22 SLT KECCAK256 EXP 0xBE MSTORE8 DUP13 COINBASE DUP10 DELEGATECALL PUSH22 0x6CFDA9B44919DA267B02D09465CE7812B6B65367F054 DUP15 0x2A PUSH5 0x736F6C6343 STOP ADDMOD SGT STOP CALLER "},"methodIdentifiers":{"TOTAL_SHARES()":"85e3f997","artistRegistry()":"81703be7","artistTracks(address,uint256)":"7b3ee633","deactivateTrack(uint256)":"58cc8a37","getArtistTracks(address)":"53392258","getTrack(uint256)":"629058ca","getTrackCount()":"b9e78bc4","owner()":"8da5cb5b","platformWallet()":"fa2af9da","tracks(uint256)":"a2e34586","uploadTrack(string,string,string,string,uint256,string,uint16,uint16,uint16)":"320f64b5"}}}}}