{"src/ArtistRegistry.sol":{"ArtistRegistry":{"abi":[{"inputs":[],"stateMutability":"nonpayable","type":"constructor"},{"anonymous":false,"inputs":[{"indexed":true,"internalType":"address","name":"wallet","type":"address"},{"indexed":false,"internalType":"string","name":"name","type":"string"},{"indexed":false,"internalType":"uint256","name":"timestamp","type":"uint256"}],"name":"ArtistRegistered","type":"event"},{"anonymous":false,"inputs":[{"indexed":true,"internalType":"address","name":"wallet","type":"address"},{"indexed":false,"internalType":"string","name":"name","type":"string"},{"indexed":false,"internalType":"uint256","name":"timestamp","type":"uint256"}],"name":"ArtistUpdated","type":"event"},{"inputs":[{"internalType":"address","name":"","type":"address"}],"name":"artists","outputs":[{"internalType":"address","name":"wallet","type":"address"},{"internalType":"string","name":"name","type":"string"},{"internalType":"string","name":"bio","type":"string"},{"internalType":"string","name":"avatarURI","type":"string"},{"internalType":"uint256","name":"registeredAt","type":"uint256"},{"internalType":"bool","name":"verified","type":"bool"}],"stateMutability":"view","type":"function"},{"inputs":[{"internalType":"address","name":"_wallet","type":"address"}],"name":"getArtist","outputs":[{"components":[{"internalType":"address","name":"wallet","type":"address"},{"internalType":"string","name":"name","type":"string"},{"internalType":"string","name":"bio","type":"string"},{"internalType":"string","name":"avatarURI","type":"string"},{"internalType":"uint256","name":"registeredAt","type":"uint256"},{"internalType":"bool","name":"verified","type":"bool"}],"internalType":"struct ArtistRegistry.Artist","name":"","type":"tuple"}],"stateMutability":"view","type":"function"},{"inputs":[{"internalType":"string","name":"_name","type":"string"}],"name":"getArtistByName","outputs":[{"components":[{"internalType":"address","name":"wallet","type":"address"},{"internalType":"string","name":"name","type":"string"},{"internalType":"string","name":"bio","type":"string"},{"internalType":"string","name":"avatarURI","type":"string"},{"internalType":"uint256","name":"registeredAt","type":"uint256"},{"internalType":"bool","name":"verified","type":"bool"}],"internalType":"struct ArtistRegistry.Artist","name":"","type":"tuple"}],"stateMutability":"view","type":"function"},{"inputs":[{"internalType":"address","name":"_wallet","type":"address"}],"name":"isArtist","outputs":[{"internalType":"bool","name":"","type":"bool"}],"stateMutability":"view","type":"function"},{"inputs":[{"internalType":"string","name":"","type":"string"}],"name":"nameToWallet","outputs":[{"internalType":"address","name":"","type":"address"}],"stateMutability":"view","type":"function"},{"inputs":[],"name":"owner","outputs":[{"internalType":"address","name":"","type":"address"}],"stateMutability":"view","type":"function"},{"inputs":[{"internalType":"string","name":"_name","type":"string"},{"internalType":"string","name":"_bio","type":"string"},{"internalType":"string","name":"_avatarURI","type":"string"}],"name":"registerArtist","outputs":[],"stateMutability":"nonpayable","type":"function"},{"inputs":[{"internalType":"string","name":"_bio","type":"string"},{"internalType":"string","name":"_avatarURI","type":"string"}],"name":"updateProfile","outputs":[],"stateMutability":"nonpayable","type":"function"}],"evm":{"bytecode":{"linkReferences":{},"object":"6080806040523461002857600280546001600160a01b03191633179055610f79908161002e8239f35b600080fdfe6080604052600436101561001257600080fd5b6000803560e01c8063069dab8f14610b995780633790b6961461062d5780636b2f65b0146105ec5780638da5cb5b146105c3578063b949c8041461056f578063c9d3cc6a1461020a578063fb73940a146100f05763fdb69f771461007557600080fd5b346100ed5760203660031901126100ed57600435906001600160401b0382116100ed57366023830112156100ed5760206100b736600485013560248601610e76565b816100cb6040519283815193849201610d85565b600190820190815281900382019020546040516001600160a01b039091168152f35b80fd5b50346100ed5760203660031901126100ed576004356001600160401b03811161020657610121903690600401610dcd565b610129610f10565b508060405192833760019082019081528190036020019020546001600160a01b0390811680156101ce57600560408460ff936101ca965280602052206040519361017285610c8d565b815416845261018360018201610cdf565b602085015261019460028201610cdf565b60408501526101a560038201610cdf565b606085015260048101546080850152015416151560a082015260405191829182610dff565b0390f35b60405162461bcd60e51b815260206004820152601060248201526f105c9d1a5cdd081b9bdd08199bdd5b9960821b6044820152606490fd5b5080fd5b50346100ed5760403660031901126100ed576001600160401b03906004358281116102065761023d903690600401610dcd565b909260243581811161056b57610257903690600401610dcd565b909433855260209385855260046040872001541561053557338652858552600260408720019184821161052157819061029a826102948654610c53565b86610ebc565b8790601f83116001146104bc5788926104b1575b50508160011b916000199060031b1c19161790555b3384528383526003604085200191811161049d576102eb816102e58454610c53565b84610ebc565b83601f821160011461043b5784958293949592610430575b50508160011b916000199060031b1c19161790555b338252818152600190816040842001906040519160408352849381549161033e83610c53565b9283604087015282811690816000146103e9575060011461038e575b505050907f094cbbff307943c7d10b4a53d166c7576bff9136d8e13066a8bcabffc21435209142908201528033930390a280f35b8652828620929450859285905b8385106103d457505050508101606001917f094cbbff307943c7d10b4a53d166c7576bff9136d8e13066a8bcabffc2143520388061035a565b8054868601606001529301928590820161039b565b9150507f094cbbff307943c7d10b4a53d166c7576bff9136d8e13066a8bcabffc214352094939550606092915060ff191682840152151560051b820101929091388061035a565b013590503880610303565b601f1982169583865284862091865b8881106104865750836001959697981061046c575b505050811b019055610318565b0135600019600384901b60f8161c1916905538808061045f565b90928660018192868601358155019401910161044a565b634e487b7160e01b84526041600452602484fd5b0135905038806102ae565b848952878920925090601f198416895b8982821061050b5750509084600195949392106104f1575b505050811b0190556102c3565b0135600019600384901b60f8161c191690553880806104e4565b60018496829395870135815501950192016104cc565b634e487b7160e01b87526041600452602487fd5b60405162461bcd60e51b815260048101869052600e60248201526d139bdd081c9959da5cdd195c995960921b6044820152606490fd5b8380fd5b50346100ed5760203660031901126100ed576001600160a01b03600435818116908190036105bf57600560406101ca9460ff936105aa610f10565b50815280602052206040519361017285610c8d565b8280fd5b50346100ed57806003193601126100ed576002546040516001600160a01b039091168152602090f35b50346100ed5760203660031901126100ed576004356001600160a01b0381169081900361020657604082600492602094528084522001541515604051908152f35b50346100ed5760603660031901126100ed576004356001600160401b0381116102065761065e903690600401610dcd565b6024929183356001600160401b03811161056b57610680903690600401610dcd565b6044356001600160401b038111610b955761069f903690600401610dcd565b8592919215610b615760208611610b2d57338752866020526004604088200154610af45760405192868685376001848801908152849003602001909320546001600160a01b0393908416610ac35761072d9061071e6040519661070188610c8d565b33885261070f368b8b610e76565b95602089019687523691610e76565b92604087019384523691610e76565b91606085019283524260808601528760a08601523388528760205260408820938551166bffffffffffffffffffffffff60a01b855416178455518051906001600160401b038211610a365781906107948261078b6001890154610c53565b60018901610ebc565b602090601f8311600114610a54578a92610a49575b50508160011b916000199060031b1c19161760018401555b51805160028401916001600160401b038211610a365781906107e7826102948654610c53565b602090601f83116001146109d2578a926109c7575b50508160011b916000199060031b1c19161790555b51958651906001600160401b0382116109b5575061083f816108366003850154610c53565b60038501610ebc565b6020601f821160011461092157918160059260a094899a7fcfc0e321967d698aa0d30804d0155801628b0bf25e5289c85a2427554aaa8897999a92610916575b50508160011b916000199060031b1c19161760038201555b6080840151600482015501910151151560ff80198354169116179055604051838282376020818581016001815203019020336bffffffffffffffffffffffff60a01b825416179055826040519160408352816040840152606083013783606084830101524260208201526060813394601f80199101168101030190a280f35b01519050388061087f565b6003830187526020872097875b601f198416811061099d5750827fcfc0e321967d698aa0d30804d0155801628b0bf25e5289c85a2427554aaa889797989960a09593600193600596601f19811610610984575b505050811b016003820155610897565b015160001960f88460031b161c19169055388080610974565b828201518a556001909901986020928301920161092e565b634e487b7160e01b8752604160045286fd5b0151905038806107fc565b848b5260208b209250601f1984168b5b818110610a1e5750908460019594939210610a05575b505050811b019055610811565b015160001960f88460031b161c191690553880806109f8565b929360206001819287860151815501950193016109e2565b634e487b7160e01b895260416004528989fd5b0151905038806107a9565b9250600186018a5260208a20908a935b601f1984168510610aa8576001945083601f19811610610a8f575b505050811b0160018401556107c1565b015160001960f88460031b161c19169055388080610a7f565b81810151835560209485019460019093019290910190610a64565b60405162461bcd60e51b815260206004820152600a818b0152692730b6b2903a30b5b2b760b11b6044820152606490fd5b60405162461bcd60e51b8152602060048201526012818a015271105b1c9958591e481c9959da5cdd195c995960721b6044820152606490fd5b60405162461bcd60e51b815260206004820152600d818a01526c4e616d6520746f6f206c6f6e6760981b6044820152606490fd5b60405162461bcd60e51b815260206004820152600d818a01526c13985b59481c995c5d5a5c9959609a1b6044820152606490fd5b8580fd5b50346100ed5760203660031901126100ed576001600160a01b03906004358281169081900361020657906040918152806020522090815416610bdd60018301610cdf565b91610bea60028201610cdf565b610c42610bf960038401610cdf565b610c3460ff600560048701549601541693610c26604051988998895260c060208a015260c0890190610da8565b908782036040890152610da8565b908582036060870152610da8565b916080840152151560a08301520390f35b90600182811c92168015610c83575b6020831014610c6d57565b634e487b7160e01b600052602260045260246000fd5b91607f1691610c62565b60c081019081106001600160401b03821117610ca857604052565b634e487b7160e01b600052604160045260246000fd5b90601f801991011681019081106001600160401b03821117610ca857604052565b9060405191826000825492610cf384610c53565b908184526001948581169081600014610d625750600114610d1f575b5050610d1d92500383610cbe565b565b9093915060005260209081600020936000915b818310610d4a575050610d1d93508201013880610d0f565b85548884018501529485019487945091830191610d32565b915050610d1d94506020925060ff191682840152151560051b8201013880610d0f565b60005b838110610d985750506000910152565b8181015183820152602001610d88565b90602091610dc181518092818552858086019101610d85565b601f01601f1916010190565b9181601f84011215610dfa578235916001600160401b038311610dfa5760208381860195010111610dfa57565b600080fd5b6020815260018060a01b03825116602082015260c060a0610e62610e31602086015184604087015260e0860190610da8565b610e4d604087015191601f199283888303016060890152610da8565b90606087015190868303016080870152610da8565b936080810151828501520151151591015290565b9291926001600160401b038211610ca85760405191610e9f601f8201601f191660200184610cbe565b829481845281830111610dfa578281602093846000960137010152565b90601f8111610eca57505050565b600091825260208220906020601f850160051c83019410610f06575b601f0160051c01915b828110610efb57505050565b818155600101610eef565b9092508290610ee6565b60405190610f1d82610c8d565b600060a0838281526060602082015260606040820152606080820152826080820152015256fea26469706673582212207e63eb6acae410f8ee79f71381ca887afb11375f43ddf869ae63bd869957ecae64736f6c63430008130033","opcodes":"PUSH1 0x80 DUP1 PUSH1 0x40 MSTORE CALLVALUE PUSH2 0x28 JUMPI PUSH1 0x2 DUP1 SLOAD PUSH1 0x1 PUSH1 0x1 PUSH1 0xA0 SHL SUB NOT AND CALLER OR SWAP1 SSTORE PUSH2 0xF79 SWAP1 DUP2 PUSH2 0x2E DUP3 CODECOPY RETURN JUMPDEST PUSH1 0x0 DUP1 REVERT INVALID PUSH1 0x80 PUSH1 0x40 MSTORE PUSH1 0x4 CALLDATASIZE LT ISZERO PUSH2 0x12 JUMPI PUSH1 0x0 DUP1 REVERT JUMPDEST PUSH1 0x0 DUP1 CALLDATALOAD PUSH1 0xE0 SHR DUP1 PUSH4 0x69DAB8F EQ PUSH2 0xB99 JUMPI DUP1 PUSH4 0x3790B696 EQ PUSH2 0x62D JUMPI DUP1 PUSH4 0x6B2F65B0 EQ PUSH2 0x5EC JUMPI DUP1 PUSH4 0x8DA5CB5B EQ PUSH2 0x5C3 JUMPI DUP1 PUSH4 0xB949C804 EQ PUSH2 0x56F JUMPI DUP1 PUSH4 0xC9D3CC6A EQ PUSH2 0x20A JUMPI DUP1 PUSH4 0xFB73940A EQ PUSH2 0xF0 JUMPI PUSH4 0xFDB69F77 EQ PUSH2 0x75 JUMPI PUSH1 0x0 DUP1 REVERT JUMPDEST CALLVALUE PUSH2 0xED JUMPI PUSH1 0x20 CALLDATASIZE PUSH1 0x3 NOT ADD SLT PUSH2 0xED JUMPI PUSH1 0x4 CALLDATALOAD SWAP1 PUSH1 0x1 PUSH1 0x1 PUSH1 0x40 SHL SUB DUP3 GT PUSH2 0xED JUMPI CALLDATASIZE PUSH1 0x23 DUP4 ADD SLT ISZERO PUSH2 0xED JUMPI PUSH1 0x20 PUSH2 0xB7 CALLDATASIZE PUSH1 0x4 DUP6 ADD CALLDATALOAD PUSH1 0x24 DUP7 ADD PUSH2 0xE76 JUMP JUMPDEST DUP2 PUSH2 0xCB PUSH1 0x40 MLOAD SWAP3 DUP4 DUP2 MLOAD SWAP4 DUP5 SWAP3 ADD PUSH2 0xD85 JUMP JUMPDEST PUSH1 0x1 SWAP1 DUP3 ADD SWAP1 DUP2 MSTORE DUP2 SWAP1 SUB DUP3 ADD SWAP1 KECCAK256 SLOAD PUSH1 0x40 MLOAD PUSH1 0x1 PUSH1 0x1 PUSH1 0xA0 SHL SUB SWAP1 SWAP2 AND DUP2 MSTORE RETURN JUMPDEST DUP1 REVERT JUMPDEST POP CALLVALUE PUSH2 0xED JUMPI PUSH1 0x20 CALLDATASIZE PUSH1 0x3 NOT ADD SLT PUSH2 0xED JUMPI PUSH1 0x4 CALLDATALOAD PUSH1 0x1 PUSH1 0x1 PUSH1 0x40 SHL SUB DUP2 GT PUSH2 0x206 JUMPI PUSH2 0x121 SWAP1 CALLDATASIZE SWAP1 PUSH1 0x4 ADD PUSH2 0xDCD JUMP JUMPDEST PUSH2 0x129 PUSH2 0xF10 JUMP JUMPDEST POP DUP1 PUSH1 0x40 MLOAD SWAP3 DUP4 CALLDATACOPY PUSH1 0x1 SWAP1 DUP3 ADD SWAP1 DUP2 MSTORE DUP2 SWAP1 SUB PUSH1 0x20 ADD SWAP1 KECCAK256 SLOAD PUSH1 0x1 PUSH1 0x1 PUSH1 0xA0 SHL SUB SWAP1 DUP2 AND DUP1 ISZERO PUSH2 0x1CE JUMPI PUSH1 0x5 PUSH1 0x40 DUP5 PUSH1 0xFF SWAP4 PUSH2 0x1CA SWAP7 MSTORE DUP1 PUSH1 0x20 MSTORE KECCAK256 PUSH1 0x40 MLOAD SWAP4 PUSH2 0x172 DUP6 PUSH2 0xC8D JUMP JUMPDEST DUP2 SLOAD AND DUP5 MSTORE PUSH2 0x183 PUSH1 0x1 DUP3 ADD PUSH2 0xCDF JUMP JUMPDEST PUSH1 0x20 DUP6 ADD MSTORE PUSH2 0x194 PUSH1 0x2 DUP3 ADD PUSH2 0xCDF JUMP JUMPDEST PUSH1 0x40 DUP6 ADD MSTORE PUSH2 0x1A5 PUSH1 0x3 DUP3 ADD PUSH2 0xCDF JUMP JUMPDEST PUSH1 0x60 DUP6 ADD MSTORE PUSH1 0x4 DUP2 ADD SLOAD PUSH1 0x80 DUP6 ADD MSTORE ADD SLOAD AND ISZERO ISZERO PUSH1 0xA0 DUP3 ADD MSTORE PUSH1 0x40 MLOAD SWAP2 DUP3 SWAP2 DUP3 PUSH2 0xDFF JUMP JUMPDEST SUB SWAP1 RETURN JUMPDEST PUSH1 0x40 MLOAD PUSH3 0x461BCD PUSH1 0xE5 SHL DUP2 MSTORE PUSH1 0x20 PUSH1 0x4 DUP3 ADD MSTORE PUSH1 0x10 PUSH1 0x24 DUP3 ADD MSTORE PUSH16 0x105C9D1A5CDD081B9BDD08199BDD5B99 PUSH1 0x82 SHL PUSH1 0x44 DUP3 ADD MSTORE PUSH1 0x64 SWAP1 REVERT JUMPDEST POP DUP1 REVERT JUMPDEST POP CALLVALUE PUSH2 0xED JUMPI PUSH1 0x40 CALLDATASIZE PUSH1 0x3 NOT ADD SLT PUSH2 0xED JUMPI PUSH1 0x1 PUSH1 0x1 PUSH1 0x40 SHL SUB SWAP1 PUSH1 0x4 CALLDATALOAD DUP3 DUP2 GT PUSH2 0x206 JUMPI PUSH2 0x23D SWAP1 CALLDATASIZE SWAP1 PUSH1 0x4 ADD PUSH2 0xDCD JUMP JUMPDEST SWAP1 SWAP3 PUSH1 0x24 CALLDATALOAD DUP2 DUP2 GT PUSH2 0x56B JUMPI PUSH2 0x257 SWAP1 CALLDATASIZE SWAP1 PUSH1 0x4 ADD PUSH2 0xDCD JUMP JUMPDEST SWAP1 SWAP5 CALLER DUP6 MSTORE PUSH1 0x20 SWAP4 DUP6 DUP6 MSTORE PUSH1 0x4 PUSH1 0x40 DUP8 KECCAK256 ADD SLOAD ISZERO PUSH2 0x535 JUMPI CALLER DUP7 MSTORE DUP6 DUP6 MSTORE PUSH1 0x2 PUSH1 0x40 DUP8 KECCAK256 ADD SWAP2 DUP5 DUP3 GT PUSH2 0x521 JUMPI DUP2 SWAP1 PUSH2 0x29A DUP3 PUSH2 0x294 DUP7 SLOAD PUSH2 0xC53 JUMP JUMPDEST DUP7 PUSH2 0xEBC JUMP JUMPDEST DUP8 SWAP1 PUSH1 0x1F DUP4 GT PUSH1 0x1 EQ PUSH2 0x4BC JUMPI DUP9 SWAP3 PUSH2 0x4B1 JUMPI JUMPDEST POP POP DUP2 PUSH1 0x1 SHL SWAP2 PUSH1 0x0 NOT SWAP1 PUSH1 0x3 SHL SHR NOT AND OR SWAP1 SSTORE JUMPDEST CALLER DUP5 MSTORE DUP4 DUP4 MSTORE PUSH1 0x3 PUSH1 0x40 DUP6 KECCAK256 ADD SWAP2 DUP2 GT PUSH2 0x49D JUMPI PUSH2 0x2EB DUP2 PUSH2 0x2E5 DUP5 SLOAD PUSH2 0xC53 JUMP JUMPDEST DUP5 PUSH2 0xEBC JUMP JUMPDEST DUP4 PUSH1 0x1F DUP3 GT PUSH1 0x1 EQ PUSH2 0x43B JUMPI DUP5 SWAP6 DUP3 SWAP4 SWAP5 SWAP6 SWAP3 PUSH2 0x430 JUMPI JUMPDEST POP POP DUP2 PUSH1 0x1 SHL SWAP2 PUSH1 0x0 NOT SWAP1 PUSH1 0x3 SHL SHR NOT AND OR SWAP1 SSTORE JUMPDEST CALLER DUP3 MSTORE DUP2 DUP2 MSTORE PUSH1 0x1 SWAP1 DUP2 PUSH1 0x40 DUP5 KECCAK256 ADD SWAP1 PUSH1 0x40 MLOAD SWAP2 PUSH1 0x40 DUP4 MSTORE DUP5 SWAP4 DUP2 SLOAD SWAP2 PUSH2 0x33E DUP4 PUSH2 0xC53 JUMP JUMPDEST SWAP3 DUP4 PUSH1 0x40 DUP8 ADD MSTORE DUP3 DUP2 AND SWAP1 DUP2 PUSH1 0x0 EQ PUSH2 0x3E9 JUMPI POP PUSH1 0x1 EQ PUSH2 0x38E JUMPI JUMPDEST POP POP POP SWAP1 PUSH32 0x94CBBFF307943C7D10B4A53D166C7576BFF9136D8E13066A8BCABFFC2143520 SWAP2 TIMESTAMP SWAP1 DUP3 ADD MSTORE DUP1 CALLER SWAP4 SUB SWAP1 LOG2 DUP1 RETURN JUMPDEST DUP7 MSTORE DUP3 DUP7 KECCAK256 SWAP3 SWAP5 POP DUP6 SWAP3 DUP6 SWAP1 JUMPDEST DUP4 DUP6 LT PUSH2 0x3D4 JUMPI POP POP POP POP DUP2 ADD PUSH1 0x60 ADD SWAP2 PUSH32 0x94CBBFF307943C7D10B4A53D166C7576BFF9136D8E13066A8BCABFFC2143520 CODESIZE DUP1 PUSH2 0x35A JUMP JUMPDEST DUP1 SLOAD DUP7 DUP7 ADD PUSH1 0x60 ADD MSTORE SWAP4 ADD SWAP3 DUP6 SWAP1 DUP3 ADD PUSH2 0x39B JUMP JUMPDEST SWAP2 POP POP PUSH32 0x94CBBFF307943C7D10B4A53D166C7576BFF9136D8E13066A8BCABFFC2143520 SWAP5 SWAP4 SWAP6 POP PUSH1 0x60 SWAP3 SWAP2 POP PUSH1 0xFF NOT AND DUP3 DUP5 ADD MSTORE ISZERO ISZERO PUSH1 0x5 SHL DUP3 ADD ADD SWAP3 SWAP1 SWAP2 CODESIZE DUP1 PUSH2 0x35A JUMP JUMPDEST ADD CALLDATALOAD SWAP1 POP CODESIZE DUP1 PUSH2 0x303 JUMP JUMPDEST PUSH1 0x1F NOT DUP3 AND SWAP6 DUP4 DUP7 MSTORE DUP5 DUP7 KECCAK256 SWAP2 DUP7 JUMPDEST DUP9 DUP2 LT PUSH2 0x486 JUMPI POP DUP4 PUSH1 0x1 SWAP6 SWAP7 SWAP8 SWAP9 LT PUSH2 0x46C JUMPI JUMPDEST POP POP POP DUP2 SHL ADD SWAP1 SSTORE PUSH2 0x318 JUMP JUMPDEST ADD CALLDATALOAD PUSH1 0x0 NOT PUSH1 0x3 DUP5 SWAP1 SHL PUSH1 0xF8 AND SHR NOT AND SWAP1 SSTORE CODESIZE DUP1 DUP1 PUSH2 0x45F JUMP JUMPDEST SWAP1 SWAP3 DUP7 PUSH1 0x1 DUP2 SWAP3 DUP7 DUP7 ADD CALLDATALOAD DUP2 SSTORE ADD SWAP5 ADD SWAP2 ADD PUSH2 0x44A JUMP JUMPDEST PUSH4 0x4E487B71 PUSH1 0xE0 SHL DUP5 MSTORE PUSH1 0x41 PUSH1 0x4 MSTORE PUSH1 0x24 DUP5 REVERT JUMPDEST ADD CALLDATALOAD SWAP1 POP CODESIZE DUP1 PUSH2 0x2AE JUMP JUMPDEST DUP5 DUP10 MSTORE DUP8 DUP10 KECCAK256 SWAP3 POP SWAP1 PUSH1 0x1F NOT DUP5 AND DUP10 JUMPDEST DUP10 DUP3 DUP3 LT PUSH2 0x50B JUMPI POP POP SWAP1 DUP5 PUSH1 0x1 SWAP6 SWAP5 SWAP4 SWAP3 LT PUSH2 0x4F1 JUMPI JUMPDEST POP POP POP DUP2 SHL ADD SWAP1 SSTORE PUSH2 0x2C3 JUMP JUMPDEST ADD CALLDATALOAD PUSH1 0x0 NOT PUSH1 0x3 DUP5 SWAP1 SHL PUSH1 0xF8 AND SHR NOT AND SWAP1 SSTORE CODESIZE DUP1 DUP1 PUSH2 0x4E4 JUMP JUMPDEST PUSH1 0x1 DUP5 SWAP7 DUP3 SWAP4 SWAP6 DUP8 ADD CALLDATALOAD DUP2 SSTORE ADD SWAP6 ADD SWAP3 ADD PUSH2 0x4CC JUMP JUMPDEST PUSH4 0x4E487B71 PUSH1 0xE0 SHL DUP8 MSTORE PUSH1 0x41 PUSH1 0x4 MSTORE PUSH1 0x24 DUP8 REVERT JUMPDEST PUSH1 0x40 MLOAD PUSH3 0x461BCD PUSH1 0xE5 SHL DUP2 MSTORE PUSH1 0x4 DUP2 ADD DUP7 SWAP1 MSTORE PUSH1 0xE PUSH1 0x24 DUP3 ADD MSTORE PUSH14 0x139BDD081C9959DA5CDD195C9959 PUSH1 0x92 SHL PUSH1 0x44 DUP3 ADD MSTORE PUSH1 0x64 SWAP1 REVERT JUMPDEST DUP4 DUP1 REVERT JUMPDEST POP CALLVALUE PUSH2 0xED JUMPI PUSH1 0x20 CALLDATASIZE PUSH1 0x3 NOT ADD SLT PUSH2 0xED JUMPI PUSH1 0x1 PUSH1 0x1 PUSH1 0xA0 SHL SUB PUSH1 0x4 CALLDATALOAD DUP2 DUP2 AND SWAP1 DUP2 SWAP1 SUB PUSH2 0x5BF JUMPI PUSH1 0x5 PUSH1 0x40 PUSH2 0x1CA SWAP5 PUSH1 0xFF SWAP4 PUSH2 0x5AA PUSH2 0xF10 JUMP JUMPDEST POP DUP2 MSTORE DUP1 PUSH1 0x20 MSTORE KECCAK256 PUSH1 0x40 MLOAD SWAP4 PUSH2 0x172 DUP6 PUSH2 0xC8D JUMP JUMPDEST DUP3 DUP1 REVERT JUMPDEST POP CALLVALUE PUSH2 0xED JUMPI DUP1 PUSH1 0x3 NOT CALLDATASIZE ADD SLT PUSH2 0xED JUMPI PUSH1 0x2 SLOAD PUSH1 0x40 MLOAD PUSH1 0x1 PUSH1 0x1 PUSH1 0xA0 SHL SUB SWAP1 SWAP2 AND DUP2 MSTORE PUSH1 0x20 SWAP1 RETURN JUMPDEST POP CALLVALUE PUSH2 0xED JUMPI PUSH1 0x20 CALLDATASIZE PUSH1 0x3 NOT ADD SLT PUSH2 0xED JUMPI PUSH1 0x4 CALLDATALOAD PUSH1 0x1 PUSH1 0x1 PUSH1 0xA0 SHL SUB DUP2 AND SWAP1 DUP2 SWAP1 SUB PUSH2 0x206 JUMPI PUSH1 0x40 DUP3 PUSH1 0x4 SWAP3 PUSH1 0x20 SWAP5 MSTORE DUP1 DUP5 MSTORE KECCAK256 ADD SLOAD ISZERO ISZERO PUSH1 0x40 MLOAD SWAP1 DUP2 MSTORE RETURN JUMPDEST POP CALLVALUE PUSH2 0xED JUMPI PUSH1 0x60 CALLDATASIZE PUSH1 0x3 NOT ADD SLT PUSH2 0xED JUMPI PUSH1 0x4 CALLDATALOAD PUSH1 0x1 PUSH1 0x1 PUSH1 0x40 SHL SUB DUP2 GT PUSH2 0x206 JUMPI PUSH2 0x65E SWAP1 CALLDATASIZE SWAP1 PUSH1 0x4 ADD PUSH2 0xDCD JUMP JUMPDEST PUSH1 0x24 SWAP3 SWAP2 DUP4 CALLDATALOAD PUSH1 0x1 PUSH1 0x1 PUSH1 0x40 SHL SUB DUP2 GT PUSH2 0x56B JUMPI PUSH2 0x680 SWAP1 CALLDATASIZE SWAP1 PUSH1 0x4 ADD PUSH2 0xDCD JUMP JUMPDEST PUSH1 0x44 CALLDATALOAD PUSH1 0x1 PUSH1 0x1 PUSH1 0x40 SHL SUB DUP2 GT PUSH2 0xB95 JUMPI PUSH2 0x69F SWAP1 CALLDATASIZE SWAP1 PUSH1 0x4 ADD PUSH2 0xDCD JUMP JUMPDEST DUP6 SWAP3 SWAP2 SWAP3 ISZERO PUSH2 0xB61 JUMPI PUSH1 0x20 DUP7 GT PUSH2 0xB2D JUMPI CALLER DUP8 MSTORE DUP7 PUSH1 0x20 MSTORE PUSH1 0x4 PUSH1 0x40 DUP9 KECCAK256 ADD SLOAD PUSH2 0xAF4 JUMPI PUSH1 0x40 MLOAD SWAP3 DUP7 DUP7 DUP6 CALLDATACOPY PUSH1 0x1 DUP5 DUP9 ADD SWAP1 DUP2 MSTORE DUP5 SWAP1 SUB PUSH1 0x20 ADD SWAP1 SWAP4 KECCAK256 SLOAD PUSH1 0x1 PUSH1 0x1 PUSH1 0xA0 SHL SUB SWAP4 SWAP1 DUP5 AND PUSH2 0xAC3 JUMPI PUSH2 0x72D SWAP1 PUSH2 0x71E PUSH1 0x40 MLOAD SWAP7 PUSH2 0x701 DUP9 PUSH2 0xC8D JUMP JUMPDEST CALLER DUP9 MSTORE PUSH2 0x70F CALLDATASIZE DUP12 DUP12 PUSH2 0xE76 JUMP JUMPDEST SWAP6 PUSH1 0x20 DUP10 ADD SWAP7 DUP8 MSTORE CALLDATASIZE SWAP2 PUSH2 0xE76 JUMP JUMPDEST SWAP3 PUSH1 0x40 DUP8 ADD SWAP4 DUP5 MSTORE CALLDATASIZE SWAP2 PUSH2 0xE76 JUMP JUMPDEST SWAP2 PUSH1 0x60 DUP6 ADD SWAP3 DUP4 MSTORE TIMESTAMP PUSH1 0x80 DUP7 ADD MSTORE DUP8 PUSH1 0xA0 DUP7 ADD MSTORE CALLER DUP9 MSTORE DUP8 PUSH1 0x20 MSTORE PUSH1 0x40 DUP9 KECCAK256 SWAP4 DUP6 MLOAD AND PUSH12 0xFFFFFFFFFFFFFFFFFFFFFFFF PUSH1 0xA0 SHL DUP6 SLOAD AND OR DUP5 SSTORE MLOAD DUP1 MLOAD SWAP1 PUSH1 0x1 PUSH1 0x1 PUSH1 0x40 SHL SUB DUP3 GT PUSH2 0xA36 JUMPI DUP2 SWAP1 PUSH2 0x794 DUP3 PUSH2 0x78B PUSH1 0x1 DUP10 ADD SLOAD PUSH2 0xC53 JUMP JUMPDEST PUSH1 0x1 DUP10 ADD PUSH2 0xEBC JUMP JUMPDEST PUSH1 0x20 SWAP1 PUSH1 0x1F DUP4 GT PUSH1 0x1 EQ PUSH2 0xA54 JUMPI DUP11 SWAP3 PUSH2 0xA49 JUMPI JUMPDEST POP POP DUP2 PUSH1 0x1 SHL SWAP2 PUSH1 0x0 NOT SWAP1 PUSH1 0x3 SHL SHR NOT AND OR PUSH1 0x1 DUP5 ADD SSTORE JUMPDEST MLOAD DUP1 MLOAD PUSH1 0x2 DUP5 ADD SWAP2 PUSH1 0x1 PUSH1 0x1 PUSH1 0x40 SHL SUB DUP3 GT PUSH2 0xA36 JUMPI DUP2 SWAP1 PUSH2 0x7E7 DUP3 PUSH2 0x294 DUP7 SLOAD PUSH2 0xC53 JUMP JUMPDEST PUSH1 0x20 SWAP1 PUSH1 0x1F DUP4 GT PUSH1 0x1 EQ PUSH2 0x9D2 JUMPI DUP11 SWAP3 PUSH2 0x9C7 JUMPI JUMPDEST POP POP DUP2 PUSH1 0x1 SHL SWAP2 PUSH1 0x0 NOT SWAP1 PUSH1 0x3 SHL SHR NOT AND OR SWAP1 SSTORE JUMPDEST MLOAD SWAP6 DUP7 MLOAD SWAP1 PUSH1 0x1 PUSH1 0x1 PUSH1 0x40 SHL SUB DUP3 GT PUSH2 0x9B5 JUMPI POP PUSH2 0x83F DUP2 PUSH2 0x836 PUSH1 0x3 DUP6 ADD SLOAD PUSH2 0xC53 JUMP JUMPDEST PUSH1 0x3 DUP6 ADD PUSH2 0xEBC JUMP JUMPDEST PUSH1 0x20 PUSH1 0x1F DUP3 GT PUSH1 0x1 EQ PUSH2 0x921 JUMPI SWAP2 DUP2 PUSH1 0x5 SWAP3 PUSH1 0xA0 SWAP5 DUP10 SWAP11 PUSH32 0xCFC0E321967D698AA0D30804D0155801628B0BF25E5289C85A2427554AAA8897 SWAP10 SWAP11 SWAP3 PUSH2 0x916 JUMPI JUMPDEST POP POP DUP2 PUSH1 0x1 SHL SWAP2 PUSH1 0x0 NOT SWAP1 PUSH1 0x3 SHL SHR NOT AND OR PUSH1 0x3 DUP3 ADD SSTORE JUMPDEST PUSH1 0x80 DUP5 ADD MLOAD PUSH1 0x4 DUP3 ADD SSTORE ADD SWAP2 ADD MLOAD ISZERO ISZERO PUSH1 0xFF DUP1 NOT DUP4 SLOAD AND SWAP2 AND OR SWAP1 SSTORE PUSH1 0x40 MLOAD DUP4 DUP3 DUP3 CALLDATACOPY PUSH1 0x20 DUP2 DUP6 DUP2 ADD PUSH1 0x1 DUP2 MSTORE SUB ADD SWAP1 KECCAK256 CALLER PUSH12 0xFFFFFFFFFFFFFFFFFFFFFFFF PUSH1 0xA0 SHL DUP3 SLOAD AND OR SWAP1 SSTORE DUP3 PUSH1 0x40 MLOAD SWAP2 PUSH1 0x40 DUP4 MSTORE DUP2 PUSH1 0x40 DUP5 ADD MSTORE PUSH1 0x60 DUP4 ADD CALLDATACOPY DUP4 PUSH1 0x60 DUP5 DUP4 ADD ADD MSTORE TIMESTAMP PUSH1 0x20 DUP3 ADD MSTORE PUSH1 0x60 DUP2 CALLER SWAP5 PUSH1 0x1F DUP1 NOT SWAP2 ADD AND DUP2 ADD SUB ADD SWAP1 LOG2 DUP1 RETURN JUMPDEST ADD MLOAD SWAP1 POP CODESIZE DUP1 PUSH2 0x87F JUMP JUMPDEST PUSH1 0x3 DUP4 ADD DUP8 MSTORE PUSH1 0x20 DUP8 KECCAK256 SWAP8 DUP8 JUMPDEST PUSH1 0x1F NOT DUP5 AND DUP2 LT PUSH2 0x99D JUMPI POP DUP3 PUSH32 0xCFC0E321967D698AA0D30804D0155801628B0BF25E5289C85A2427554AAA8897 SWAP8 SWAP9 SWAP10 PUSH1 0xA0 SWAP6 SWAP4 PUSH1 0x1 SWAP4 PUSH1 0x5 SWAP7 PUSH1 0x1F NOT DUP2 AND LT PUSH2 0x984 JUMPI JUMPDEST POP POP POP DUP2 SHL ADD PUSH1 0x3 DUP3 ADD SSTORE PUSH2 0x897 JUMP JUMPDEST ADD MLOAD PUSH1 0x0 NOT PUSH1 0xF8 DUP5 PUSH1 0x3 SHL AND SHR NOT AND SWAP1 SSTORE CODESIZE DUP1 DUP1 PUSH2 0x974 JUMP JUMPDEST DUP3 DUP3 ADD MLOAD DUP11 SSTORE PUSH1 0x1 SWAP1 SWAP10 ADD SWAP9 PUSH1 0x20 SWAP3 DUP4 ADD SWAP3 ADD PUSH2 0x92E JUMP JUMPDEST PUSH4 0x4E487B71 PUSH1 0xE0 SHL DUP8 MSTORE PUSH1 0x41 PUSH1 0x4 MSTORE DUP7 REVERT JUMPDEST ADD MLOAD SWAP1 POP CODESIZE DUP1 PUSH2 0x7FC JUMP JUMPDEST DUP5 DUP12 MSTORE PUSH1 0x20 DUP12 KECCAK256 SWAP3 POP PUSH1 0x1F NOT DUP5 AND DUP12 JUMPDEST DUP2 DUP2 LT PUSH2 0xA1E JUMPI POP SWAP1 DUP5 PUSH1 0x1 SWAP6 SWAP5 SWAP4 SWAP3 LT PUSH2 0xA05 JUMPI JUMPDEST POP POP POP DUP2 SHL ADD SWAP1 SSTORE PUSH2 0x811 JUMP JUMPDEST ADD MLOAD PUSH1 0x0 NOT PUSH1 0xF8 DUP5 PUSH1 0x3 SHL AND SHR NOT AND SWAP1 SSTORE CODESIZE DUP1 DUP1 PUSH2 0x9F8 JUMP JUMPDEST SWAP3 SWAP4 PUSH1 0x20 PUSH1 0x1 DUP2 SWAP3 DUP8 DUP7 ADD MLOAD DUP2 SSTORE ADD SWAP6 ADD SWAP4 ADD PUSH2 0x9E2 JUMP JUMPDEST PUSH4 0x4E487B71 PUSH1 0xE0 SHL DUP10 MSTORE PUSH1 0x41 PUSH1 0x4 MSTORE DUP10 DUP10 REVERT JUMPDEST ADD MLOAD SWAP1 POP CODESIZE DUP1 PUSH2 0x7A9 JUMP JUMPDEST SWAP3 POP PUSH1 0x1 DUP7 ADD DUP11 MSTORE PUSH1 0x20 DUP11 KECCAK256 SWAP1 DUP11 SWAP4 JUMPDEST PUSH1 0x1F NOT DUP5 AND DUP6 LT PUSH2 0xAA8 JUMPI PUSH1 0x1 SWAP5 POP DUP4 PUSH1 0x1F NOT DUP2 AND LT PUSH2 0xA8F JUMPI JUMPDEST POP POP POP DUP2 SHL ADD PUSH1 0x1 DUP5 ADD SSTORE PUSH2 0x7C1 JUMP JUMPDEST ADD MLOAD PUSH1 0x0 NOT PUSH1 0xF8 DUP5 PUSH1 0x3 SHL AND SHR NOT AND SWAP1 SSTORE CODESIZE DUP1 DUP1 PUSH2 0xA7F JUMP JUMPDEST DUP2 DUP2 ADD MLOAD DUP4 SSTORE PUSH1 0x20 SWAP5 DUP6 ADD SWAP5 PUSH1 0x1 SWAP1 SWAP4 ADD SWAP3 SWAP1 SWAP2 ADD SWAP1 PUSH2 0xA64 JUMP JUMPDEST PUSH1 0x40 MLOAD PUSH3 0x461BCD PUSH1 0xE5 SHL DUP2 MSTORE PUSH1 0x20 PUSH1 0x4 DUP3 ADD MSTORE PUSH1 0xA DUP2 DUP12 ADD MSTORE PUSH10 0x2730B6B2903A30B5B2B7 PUSH1 0xB1 SHL PUSH1 0x44 DUP3 ADD MSTORE PUSH1 0x64 SWAP1 REVERT JUMPDEST PUSH1 0x40 MLOAD PUSH3 0x461BCD PUSH1 0xE5 SHL DUP2 MSTORE PUSH1 0x20 PUSH1 0x4 DUP3 ADD MSTORE PUSH1 0x12 DUP2 DUP11 ADD MSTORE PUSH18 0x105B1C9958591E481C9959DA5CDD195C9959 PUSH1 0x72 SHL PUSH1 0x44 DUP3 ADD MSTORE PUSH1 0x64 SWAP1 REVERT JUMPDEST PUSH1 0x40 MLOAD PUSH3 0x461BCD PUSH1 0xE5 SHL DUP2 MSTORE PUSH1 0x20 PUSH1 0x4 DUP3 ADD MSTORE PUSH1 0xD DUP2 DUP11 ADD MSTORE PUSH13 0x4E616D6520746F6F206C6F6E67 PUSH1 0x98 SHL PUSH1 0x44 DUP3 ADD MSTORE PUSH1 0x64 SWAP1 REVERT JUMPDEST PUSH1 0x40 MLOAD PUSH3 0x461BCD PUSH1 0xE5 SHL DUP2 MSTORE PUSH1 0x20 PUSH1 0x4 DUP3 ADD MSTORE PUSH1 0xD DUP2 DUP11 ADD MSTORE PUSH13 0x13985B59481C995C5D5A5C9959 PUSH1 0x9A SHL PUSH1 0x44 DUP3 ADD MSTORE PUSH1 0x64 SWAP1 REVERT JUMPDEST DUP6 DUP1 REVERT JUMPDEST POP CALLVALUE PUSH2 0xED JUMPI PUSH1 0x20 CALLDATASIZE PUSH1 0x3 NOT ADD SLT PUSH2 0xED JUMPI PUSH1 0x1 PUSH1 0x1 PUSH1 0xA0 SHL SUB SWAP1 PUSH1 0x4 CALLDATALOAD DUP3 DUP2 AND SWAP1 DUP2 SWAP1 SUB PUSH2 0x206 JUMPI SWAP1 PUSH1 0x40 SWAP2 DUP2 MSTORE DUP1 PUSH1 0x20 MSTORE KECCAK256 SWAP1 DUP2 SLOAD AND PUSH2 0xBDD PUSH1 0x1 DUP4 ADD PUSH2 0xCDF JUMP JUMPDEST SWAP2 PUSH2 0xBEA PUSH1 0x2 DUP3 ADD PUSH2 0xCDF JUMP JUMPDEST PUSH2 0xC42 PUSH2 0xBF9 PUSH1 0x3 DUP5 ADD PUSH2 0xCDF JUMP JUMPDEST PUSH2 0xC34 PUSH1 0xFF PUSH1 0x5 PUSH1 0x4 DUP8 ADD SLOAD SWAP7 ADD SLOAD AND SWAP4 PUSH2 0xC26 PUSH1 0x40 MLOAD SWAP9 DUP10 SWAP9 DUP10 MSTORE PUSH1 0xC0 PUSH1 0x20 DUP11 ADD MSTORE PUSH1 0xC0 DUP10 ADD SWAP1 PUSH2 0xDA8 JUMP JUMPDEST SWAP1 DUP8 DUP3 SUB PUSH1 0x40 DUP10 ADD MSTORE PUSH2 0xDA8 JUMP JUMPDEST SWAP1 DUP6 DUP3 SUB PUSH1 0x60 DUP8 ADD MSTORE PUSH2 0xDA8 JUMP JUMPDEST SWAP2 PUSH1 0x80 DUP5 ADD MSTORE ISZERO ISZERO PUSH1 0xA0 DUP4 ADD MSTORE SUB SWAP1 RETURN JUMPDEST SWAP1 PUSH1 0x1 DUP3 DUP2 SHR SWAP3 AND DUP1 ISZERO PUSH2 0xC83 JUMPI JUMPDEST PUSH1 0x20 DUP4 LT EQ PUSH2 0xC6D JUMPI JUMP JUMPDEST PUSH4 0x4E487B71 PUSH1 0xE0 SHL PUSH1 0x0 MSTORE PUSH1 0x22 PUSH1 0x4 MSTORE PUSH1 0x24 PUSH1 0x0 REVERT JUMPDEST SWAP2 PUSH1 0x7F AND SWAP2 PUSH2 0xC62 JUMP JUMPDEST PUSH1 0xC0 DUP2 ADD SWAP1 DUP2 LT PUSH1 0x1 PUSH1 0x1 PUSH1 0x40 SHL SUB DUP3 GT OR PUSH2 0xCA8 JUMPI PUSH1 0x40 MSTORE JUMP JUMPDEST PUSH4 0x4E487B71 PUSH1 0xE0 SHL PUSH1 0x0 MSTORE PUSH1 0x41 PUSH1 0x4 MSTORE PUSH1 0x24 PUSH1 0x0 REVERT JUMPDEST SWAP1 PUSH1 0x1F DUP1 NOT SWAP2 ADD AND DUP2 ADD SWAP1 DUP2 LT PUSH1 0x1 PUSH1 0x1 PUSH1 0x40 SHL SUB DUP3 GT OR PUSH2 0xCA8 JUMPI PUSH1 0x40 MSTORE JUMP JUMPDEST SWAP1 PUSH1 0x40 MLOAD SWAP2 DUP3 PUSH1 0x0 DUP3 SLOAD SWAP3 PUSH2 0xCF3 DUP5 PUSH2 0xC53 JUMP JUMPDEST SWAP1 DUP2 DUP5 MSTORE PUSH1 0x1 SWAP5 DUP6 DUP2 AND SWAP1 DUP2 PUSH1 0x0 EQ PUSH2 0xD62 JUMPI POP PUSH1 0x1 EQ PUSH2 0xD1F JUMPI JUMPDEST POP POP PUSH2 0xD1D SWAP3 POP SUB DUP4 PUSH2 0xCBE JUMP JUMPDEST JUMP JUMPDEST SWAP1 SWAP4 SWAP2 POP PUSH1 0x0 MSTORE PUSH1 0x20 SWAP1 DUP2 PUSH1 0x0 KECCAK256 SWAP4 PUSH1 0x0 SWAP2 JUMPDEST DUP2 DUP4 LT PUSH2 0xD4A JUMPI POP POP PUSH2 0xD1D SWAP4 POP DUP3 ADD ADD CODESIZE DUP1 PUSH2 0xD0F JUMP JUMPDEST DUP6 SLOAD DUP9 DUP5 ADD DUP6 ADD MSTORE SWAP5 DUP6 ADD SWAP5 DUP8 SWAP5 POP SWAP2 DUP4 ADD SWAP2 PUSH2 0xD32 JUMP JUMPDEST SWAP2 POP POP PUSH2 0xD1D SWAP5 POP PUSH1 0x20 SWAP3 POP PUSH1 0xFF NOT AND DUP3 DUP5 ADD MSTORE ISZERO ISZERO PUSH1 0x5 SHL DUP3 ADD ADD CODESIZE DUP1 PUSH2 0xD0F JUMP JUMPDEST PUSH1 0x0 JUMPDEST DUP4 DUP2 LT PUSH2 0xD98 JUMPI POP POP PUSH1 0x0 SWAP2 ADD MSTORE JUMP JUMPDEST DUP2 DUP2 ADD MLOAD DUP4 DUP3 ADD MSTORE PUSH1 0x20 ADD PUSH2 0xD88 JUMP JUMPDEST SWAP1 PUSH1 0x20 SWAP2 PUSH2 0xDC1 DUP2 MLOAD DUP1 SWAP3 DUP2 DUP6 MSTORE DUP6 DUP1 DUP7 ADD SWAP2 ADD PUSH2 0xD85 JUMP JUMPDEST PUSH1 0x1F ADD PUSH1 0x1F NOT AND ADD ADD SWAP1 JUMP JUMPDEST SWAP2 DUP2 PUSH1 0x1F DUP5 ADD SLT ISZERO PUSH2 0xDFA JUMPI DUP3 CALLDATALOAD SWAP2 PUSH1 0x1 PUSH1 0x1 PUSH1 0x40 SHL SUB DUP4 GT PUSH2 0xDFA JUMPI PUSH1 0x20 DUP4 DUP2 DUP7 ADD SWAP6 ADD ADD GT PUSH2 0xDFA JUMPI JUMP JUMPDEST PUSH1 0x0 DUP1 REVERT JUMPDEST PUSH1 0x20 DUP2 MSTORE PUSH1 0x1 DUP1 PUSH1 0xA0 SHL SUB DUP3 MLOAD AND PUSH1 0x20 DUP3 ADD MSTORE PUSH1 0xC0 PUSH1 0xA0 PUSH2 0xE62 PUSH2 0xE31 PUSH1 0x20 DUP7 ADD MLOAD DUP5 PUSH1 0x40 DUP8 ADD MSTORE PUSH1 0xE0 DUP7 ADD SWAP1 PUSH2 0xDA8 JUMP JUMPDEST PUSH2 0xE4D PUSH1 0x40 DUP8 ADD MLOAD SWAP2 PUSH1 0x1F NOT SWAP3 DUP4 DUP9 DUP4 SUB ADD PUSH1 0x60 DUP10 ADD MSTORE PUSH2 0xDA8 JUMP JUMPDEST SWAP1 PUSH1 0x60 DUP8 ADD MLOAD SWAP1 DUP7 DUP4 SUB ADD PUSH1 0x80 DUP8 ADD MSTORE PUSH2 0xDA8 JUMP JUMPDEST SWAP4 PUSH1 0x80 DUP2 ADD MLOAD DUP3 DUP6 ADD MSTORE ADD MLOAD ISZERO ISZERO SWAP2 ADD MSTORE SWAP1 JUMP JUMPDEST SWAP3 SWAP2 SWAP3 PUSH1 0x1 PUSH1 0x1 PUSH1 0x40 SHL SUB DUP3 GT PUSH2 0xCA8 JUMPI PUSH1 0x40 MLOAD SWAP2 PUSH2 0xE9F PUSH1 0x1F DUP3 ADD PUSH1 0x1F NOT AND PUSH1 0x20 ADD DUP5 PUSH2 0xCBE JUMP JUMPDEST DUP3 SWAP5 DUP2 DUP5 MSTORE DUP2 DUP4 ADD GT PUSH2 0xDFA JUMPI DUP3 DUP2 PUSH1 0x20 SWAP4 DUP5 PUSH1 0x0 SWAP7 ADD CALLDATACOPY ADD ADD MSTORE JUMP JUMPDEST SWAP1 PUSH1 0x1F DUP2 GT PUSH2 0xECA JUMPI POP POP POP JUMP JUMPDEST PUSH1 0x0 SWAP2 DUP3 MSTORE PUSH1 0x20 DUP3 KECCAK256 SWAP1 PUSH1 0x20 PUSH1 0x1F DUP6 ADD PUSH1 0x5 SHR DUP4 ADD SWAP5 LT PUSH2 0xF06 JUMPI JUMPDEST PUSH1 0x1F ADD PUSH1 0x5 SHR ADD SWAP2 JUMPDEST DUP3 DUP2 LT PUSH2 0xEFB JUMPI POP POP POP JUMP JUMPDEST DUP2 DUP2 SSTORE PUSH1 0x1 ADD PUSH2 0xEEF JUMP JUMPDEST SWAP1 SWAP3 POP DUP3 SWAP1 PUSH2 0xEE6 JUMP JUMPDEST PUSH1 0x40 MLOAD SWAP1 PUSH2 0xF1D DUP3 PUSH2 0xC8D JUMP JUMPDEST PUSH1 0x0 PUSH1 0xA0 DUP4 DUP3 DUP2 MSTORE PUSH1 0x60 PUSH1 0x20 DUP3 ADD MSTORE PUSH1 0x60 PUSH1 0x40 DUP3 ADD MSTORE PUSH1 0x60 DUP1 DUP3 ADD MSTORE DUP3 PUSH1 0x80 DUP3 ADD MSTORE ADD MSTORE JUMP INVALID LOG2 PUSH5 0x6970667358 0x22 SLT KECCAK256 PUSH31 0x63EB6ACAE410F8EE79F71381CA887AFB11375F43DDF869AE63BD869957ECAE PUSH5 0x736F6C6343 STOP ADDMOD SGT STOP CALLER "},"methodIdentifiers":{"artists(address)":"069dab8f","getArtist(address)":"b949c804","getArtistByName(string)":"fb73940a","isArtist(address)":"6b2f65b0","nameToWallet(string)":"fdb69f77","owner()":"8da5cb5b","registerArtist(string,string,string)":"3790b696","updateProfile(string,string)":"c9d3cc6a"}}}}}