{
  "_format": "hh-sol-artifact-1",
  "contractName": "TrackRegistry",
  "sourceName": "src/TrackRegistry.sol",
  "abi": [
    {
      "inputs": [
        {
          "internalType": "address",
          "name": "_artistRegistry",
          "type": "address"
        },
        {
          "internalType": "address",
          "name": "_platformWallet",
          "type": "address"
        }
      ],
      "stateMutability": "nonpayable",
      "type": "constructor"
    },
    {
      "anonymous": false,
      "inputs": [
        {
          "indexed": true,
          "internalType": "uint256",
          "name": "trackId",
          "type": "uint256"
        },
        {
          "indexed": false,
          "internalType": "string",
          "name": "title",
          "type": "string"
        },
        {
          "indexed": false,
          "internalType": "uint256",
          "name": "timestamp",
          "type": "uint256"
        }
      ],
      "name": "TrackUpdated",
      "type": "event"
    },
    {
      "anonymous": false,
      "inputs": [
        {
          "indexed": true,
          "internalType": "uint256",
          "name": "trackId",
          "type": "uint256"
        },
        {
          "indexed": true,
          "internalType": "address",
          "name": "artist",
          "type": "address"
        },
        {
          "indexed": false,
          "internalType": "string",
          "name": "title",
          "type": "string"
        },
        {
          "indexed": false,
          "internalType": "uint256",
          "name": "timestamp",
          "type": "uint256"
        }
      ],
      "name": "TrackUploaded",
      "type": "event"
    },
    {
      "inputs": [],
      "name": "TOTAL_SHARES",
      "outputs": [
        {
          "internalType": "uint256",
          "name": "",
          "type": "uint256"
        }
      ],
      "stateMutability": "view",
      "type": "function"
    },
    {
      "inputs": [],
      "name": "artistRegistry",
      "outputs": [
        {
          "internalType": "contract ArtistRegistry",
          "name": "",
          "type": "address"
        }
      ],
      "stateMutability": "view",
      "type": "function"
    },
    {
      "inputs": [
        {
          "internalType": "address",
          "name": "",
          "type": "address"
        },
        {
          "internalType": "uint256",
          "name": "",
          "type": "uint256"
        }
      ],
      "name": "artistTracks",
      "outputs": [
        {
          "internalType": "uint256",
          "name": "",
          "type": "uint256"
        }
      ],
      "stateMutability": "view",
      "type": "function"
    },
    {
      "inputs": [
        {
          "internalType": "uint256",
          "name": "_trackId",
          "type": "uint256"
        }
      ],
      "name": "deactivateTrack",
      "outputs": [],
      "stateMutability": "nonpayable",
      "type": "function"
    },
    {
      "inputs": [
        {
          "internalType": "address",
          "name": "_artist",
          "type": "address"
        }
      ],
      "name": "getArtistTracks",
      "outputs": [
        {
          "internalType": "uint256[]",
          "name": "",
          "type": "uint256[]"
        }
      ],
      "stateMutability": "view",
      "type": "function"
    },
    {
      "inputs": [
        {
          "internalType": "uint256",
          "name": "_trackId",
          "type": "uint256"
        }
      ],
      "name": "getTrack",
      "outputs": [
        {
          "components": [
            {
              "internalType": "uint256",
              "name": "id",
              "type": "uint256"
            },
            {
              "internalType": "address",
              "name": "artist",
              "type": "address"
            },
            {
              "internalType": "string",
              "name": "title",
              "type": "string"
            },
            {
              "internalType": "string",
              "name": "description",
              "type": "string"
            },
            {
              "internalType": "string",
              "name": "audioURI",
              "type": "string"
            },
            {
              "internalType": "string",
              "name": "coverArtURI",
              "type": "string"
            },
            {
              "internalType": "uint256",
              "name": "duration",
              "type": "uint256"
            },
            {
              "internalType": "string",
              "name": "genre",
              "type": "string"
            },
            {
              "internalType": "uint256",
              "name": "uploadedAt",
              "type": "uint256"
            },
            {
              "internalType": "bool",
              "name": "isActive",
              "type": "bool"
            },
            {
              "internalType": "uint16",
              "name": "artistShare",
              "type": "uint16"
            },
            {
              "internalType": "uint16",
              "name": "platformShare",
              "type": "uint16"
            },
            {
              "internalType": "uint16",
              "name": "listenerShare",
              "type": "uint16"
            }
          ],
          "internalType": "struct TrackRegistry.Track",
          "name": "",
          "type": "tuple"
        }
      ],
      "stateMutability": "view",
      "type": "function"
    },
    {
      "inputs": [],
      "name": "getTrackCount",
      "outputs": [
        {
          "internalType": "uint256",
          "name": "",
          "type": "uint256"
        }
      ],
      "stateMutability": "view",
      "type": "function"
    },
    {
      "inputs": [],
      "name": "owner",
      "outputs": [
        {
          "internalType": "address",
          "name": "",
          "type": "address"
        }
      ],
      "stateMutability": "view",
      "type": "function"
    },
    {
      "inputs": [],
      "name": "platformWallet",
      "outputs": [
        {
          "internalType": "address",
          "name": "",
          "type": "address"
        }
      ],
      "stateMutability": "view",
      "type": "function"
    },
    {
      "inputs": [
        {
          "internalType": "uint256",
          "name": "",
          "type": "uint256"
        }
      ],
      "name": "tracks",
      "outputs": [
        {
          "internalType": "uint256",
          "name": "id",
          "type": "uint256"
        },
        {
          "internalType": "address",
          "name": "artist",
          "type": "address"
        },
        {
          "internalType": "string",
          "name": "title",
          "type": "string"
        },
        {
          "internalType": "string",
          "name": "description",
          "type": "string"
        },
        {
          "internalType": "string",
          "name": "audioURI",
          "type": "string"
        },
        {
          "internalType": "string",
          "name": "coverArtURI",
          "type": "string"
        },
        {
          "internalType": "uint256",
          "name": "duration",
          "type": "uint256"
        },
        {
          "internalType": "string",
          "name": "genre",
          "type": "string"
        },
        {
          "internalType": "uint256",
          "name": "uploadedAt",
          "type": "uint256"
        },
        {
          "internalType": "bool",
          "name": "isActive",
          "type": "bool"
        },
        {
          "internalType": "uint16",
          "name": "artistShare",
          "type": "uint16"
        },
        {
          "internalType": "uint16",
          "name": "platformShare",
          "type": "uint16"
        },
        {
          "internalType": "uint16",
          "name": "listenerShare",
          "type": "uint16"
        }
      ],
      "stateMutability": "view",
      "type": "function"
    },
    {
      "inputs": [
        {
          "internalType": "string",
          "name": "_title",
          "type": "string"
        },
        {
          "internalType": "string",
          "name": "_description",
          "type": "string"
        },
        {
          "internalType": "string",
          "name": "_audioURI",
          "type": "string"
        },
        {
          "internalType": "string",
          "name": "_coverArtURI",
          "type": "string"
        },
        {
          "internalType": "uint256",
          "name": "_duration",
          "type": "uint256"
        },
        {
          "internalType": "string",
          "name": "_genre",
          "type": "string"
        },
        {
          "internalType": "uint16",
          "name": "_artistShare",
          "type": "uint16"
        },
        {
          "internalType": "uint16",
          "name": "_platformShare",
          "type": "uint16"
        },
        {
          "internalType": "uint16",
          "name": "_listenerShare",
          "type": "uint16"
        }
      ],
      "name": "uploadTrack",
      "outputs": [
        {
          "internalType": "uint256",
          "name": "",
          "type": "uint256"
        }
      ],
      "stateMutability": "nonpayable",
      "type": "function"
    }
  ],
  "bytecode": "0x60803461009257601f6114b738819003918201601f19168301916001600160401b0383118484101761009757808492604094855283398101031261009257610052602061004b836100ad565b92016100ad565b9060018060a01b0319913383600354161760035560018060a01b03809216836001541617600155169060045416176004556040516113f590816100c28239f35b600080fd5b634e487b7160e01b600052604160045260246000fd5b51906001600160a01b03821682036100925756fe6080604052600436101561001257600080fd5b60003560e01c8063320f64b51461066e57806353392258146105ba57806358cc8a3714610516578063629058ca146102d75780637b3ee6331461027f57806381703be71461025657806385e3f997146102395780638da5cb5b14610210578063a2e34586146100e1578063b9e78bc4146100c35763fa2af9da1461009557600080fd5b346100be5760003660031901126100be576004546040516001600160a01b039091168152602090f35b600080fd5b346100be5760003660031901126100be576020600054604051908152f35b346100be5760203660031901126100be576004356000548110156100be57610108906111a4565b50805460018201546001600160a01b03169161012660028201611269565b61013260038301611269565b61013e60048401611269565b61014a60058501611269565b60068501549161015c60078701611269565b936008870154966009015495604051998a998a5260208a01526101a08060408b0152890161018991611136565b88810360608a015261019a91611136565b87810360808901526101ab91611136565b86810360a08801526101bc91611136565b9060c086015284810360e08601526101d391611136565b9161010084015260ff8116151561012084015261ffff90818160081c16610140850152818160181c1661016085015260281c166101808301520390f35b346100be5760003660031901126100be576003546040516001600160a01b039091168152602090f35b346100be5760003660031901126100be5760206040516127108152f35b346100be5760003660031901126100be576001546040516001600160a01b039091168152602090f35b346100be5760403660031901126100be57610298611120565b6001600160a01b03166000908152600260205260409020805460243591908210156100be576020916102c991611176565b90546040519160031b1c8152f35b346100be5760203660031901126100be5761036060043560006101806040516102ff8161122c565b8281528260208201526060604082015260608082015260606080820152606060a08201528260c0820152606060e082015282610100820152826101208201528261014082015282610160820152015261035b6000548210611381565b6111a4565b5061ffff6009604051926103738461122c565b8054845260018101546001600160a01b0316602085015261039660028201611269565b60408501526103a760038201611269565b60608501526103b860048201611269565b60808501526103c960058201611269565b60a0850152600681015460c08501526103e460078201611269565b60e08501526008810154610100850152015460ff81161515610120840152818160081c16610140840152818160181c1661016084015260281c166101808201526040518091602082528051602083015260018060a01b03602082015116604083015261ffff6101806104d461046a60408501516101a060608801526101c0870190611136565b6104b46104a061048c606088015193601f1994858b83030160808c0152611136565b6080880151848a83030160a08b0152611136565b60a0870151838983030160c08a0152611136565b9060c086015160e088015260e08601519087830301610100880152611136565b92610100810151610120860152610120810151151561014086015282610140820151166101608601528261016082015116828601520151166101a08301520390f35b346100be5760203660031901126100be576004356105376000548210611381565b6001610542826111a4565b50818060a01b0391829101541633149081156105ac575b50156105765761056a6009916111a4565b5001805460ff19169055005b60405162461bcd60e51b815260206004820152600e60248201526d139bdd08185d5d1a1bdc9a5e995960921b6044820152606490fd5b905060035416331482610559565b346100be576020806003193601126100be576001600160a01b036105dc611120565b1660005260028152604060002060405190818382549182815201908192600052846000209060005b8682821061065a57868661061a82880383611248565b604051928392818401908285525180915260408401929160005b82811061064357505050500390f35b835185528695509381019392810192600101610634565b835485529093019260019283019201610604565b346100be576101203660031901126100be576004356001600160401b0381116100be5761069f9036906004016110f3565b6024356001600160401b0381116100be576106be9036906004016110f3565b6044929192356001600160401b0381116100be576106e09036906004016110f3565b906064356001600160401b0381116100be576107009036906004016110f3565b60a4356001600160401b0381116100be5761071f9036906004016110f3565b93909461ffff60c4351660c435036100be5761ffff60e4351660e435036100be5761ffff610104351661010435036100be576001546306b2f65b60e41b60809081523360845260209160249082906001600160a01b03165afa80156110e7576000906110b0575b1561106b578715611035578015610ffb5761271061ffff6107b7610104356107b260e43560c43561130f565b61130f565b1603610fbd5760005498604051976107ce8961122c565b8a89523360208a01526107e2368b8e61133b565b60408a015236906107f29261133b565b606088015236906108029261133b565b608086015236906108129261133b565b60a084015260843560c0840152369061082a9261133b565b60e082015242610100820152600161012082015261ffff60c435811661014083015260e43581166101608301526101043516610180820152600160401b831015610b8c576001830160005561087e836111a4565b610fa757815181556001810160018060a01b036020840151166bffffffffffffffffffffffff60a01b82541617905560408201518051906001600160401b038211610b8c5781906108d260028501546111f2565b601f8111610f54575b50602090601f8311600114610ee257600092610ed7575b50508160011b916000199060031b1c19161760028201555b60608201518051906001600160401b038211610b8c57819061092f60038501546111f2565b601f8111610e84575b50602090601f8311600114610e1257600092610e07575b50508160011b916000199060031b1c19161760038201555b60808201518051906001600160401b038211610b8c57819061098c60048501546111f2565b601f8111610db4575b50602090601f8311600114610d4257600092610d37575b50508160011b916000199060031b1c19161760048201555b60a08201518051906001600160401b038211610b8c5781906109e960058501546111f2565b601f8111610ce4575b50602090601f8311600114610c7257600092610c67575b50508160011b916000199060031b1c19161760058201555b60c0820151600682015560e08201518051906001600160401b038211610b8c57610a4e60078401546111f2565b601f8111610c20575b50602090601f8311600114610bad57600993929160009183610ba2575b50508160011b916000199060031b1c19161760078201555b61010083015160088201550190610120810151151590825462ffff0061014083015160081b169060ff66ffff000000000061018064ffff00000061016087015160181b1695015160281b1694169066ffffffffffffff191617171717905533600052600260205260406000208054600160401b811015610b8c57602094610b3b82869460017fcde08f0d3b4bb15d307a0359e563c6b750b18f0dee87b6cc1fe8491a910866b595018155611176565b81549060031b9085821b91600019901b1916179055836040519160408352816040840152606083013760006060858301015242868201526060813395601f80199101168101030190a3604051908152f35b634e487b7160e01b600052604160045260246000fd5b015190508880610a74565b906007840160005260206000209160005b601f1985168110610c08575091839160019360099695601f19811610610bef575b505050811b016007820155610a8c565b015160001960f88460031b161c19169055888080610bdf565b91926020600181928685015181550194019201610bbe565b600784016000526020600020601f840160051c810160208510610c60575b601f830160051c82018110610c54575050610a57565b60008155600101610c3e565b5080610c3e565b015190508780610a09565b9250600584016000526020600020906000935b601f1984168510610cc9576001945083601f19811610610cb0575b505050811b016005820155610a21565b015160001960f88460031b161c19169055878080610ca0565b81810151835560209485019460019093019290910190610c85565b909150600584016000526020600020601f840160051c810160208510610d30575b90849392915b601f830160051c82018110610d215750506109f2565b60008155859450600101610d0b565b5080610d05565b0151905087806109ac565b9250600484016000526020600020906000935b601f1984168510610d99576001945083601f19811610610d80575b505050811b0160048201556109c4565b015160001960f88460031b161c19169055878080610d70565b81810151835560209485019460019093019290910190610d55565b909150600484016000526020600020601f840160051c810160208510610e00575b90849392915b601f830160051c82018110610df1575050610995565b60008155859450600101610ddb565b5080610dd5565b01519050878061094f565b9250600384016000526020600020906000935b601f1984168510610e69576001945083601f19811610610e50575b505050811b016003820155610967565b015160001960f88460031b161c19169055878080610e40565b81810151835560209485019460019093019290910190610e25565b909150600384016000526020600020601f840160051c810160208510610ed0575b90849392915b601f830160051c82018110610ec1575050610938565b60008155859450600101610eab565b5080610ea5565b0151905087806108f2565b9250600284016000526020600020906000935b601f1984168510610f39576001945083601f19811610610f20575b505050811b01600282015561090a565b015160001960f88460031b161c19169055878080610f10565b81810151835560209485019460019093019290910190610ef5565b909150600284016000526020600020601f840160051c810160208510610fa0575b90849392915b601f830160051c82018110610f915750506108db565b60008155859450600101610f7b565b5080610f75565b634e487b7160e01b600052600060045260246000fd5b60405162461bcd60e51b8152602060048201526016602482015275536861726573206d75737420657175616c203130302560501b6044820152606490fd5b60405162461bcd60e51b8152602060048201526012602482015271105d591a5bc8155492481c995c5d5a5c995960721b6044820152606490fd5b60405162461bcd60e51b815260206004820152600e60248201526d151a5d1b19481c995c5d5a5c995960921b6044820152606490fd5b60405162461bcd60e51b815260206004820152601960248201527f4d757374206265207265676973746572656420617274697374000000000000006044820152606490fd5b5060203d6020116110e0575b806110ca6020926080611248565b126100be57608051801515811461078657600080fd5b503d6110bc565b6040513d6000823e3d90fd5b9181601f840112156100be578235916001600160401b0383116100be57602083818601950101116100be57565b600435906001600160a01b03821682036100be57565b919082519283825260005b848110611162575050826000602080949584010152601f8019910116010190565b602081830181015184830182015201611141565b805482101561118e5760005260206000200190600090565b634e487b7160e01b600052603260045260246000fd5b9060009182548110156111de57600a90838052027f290decd9548b62a8d60345a988386fc84ba6bc95484008f6362f93160ef3e563019190565b634e487b7160e01b83526032600452602483fd5b90600182811c92168015611222575b602083101461120c57565b634e487b7160e01b600052602260045260246000fd5b91607f1691611201565b6101a081019081106001600160401b03821117610b8c57604052565b90601f801991011681019081106001600160401b03821117610b8c57604052565b906040519182600082549261127d846111f2565b9081845260019485811690816000146112ec57506001146112a9575b50506112a792500383611248565b565b9093915060005260209081600020936000915b8183106112d45750506112a793508201013880611299565b855488840185015294850194879450918301916112bc565b9150506112a794506020925060ff191682840152151560051b8201013880611299565b91909161ffff8080941691160191821161132557565b634e487b7160e01b600052601160045260246000fd5b9291926001600160401b038211610b8c5760405191611364601f8201601f191660200184611248565b8294818452818301116100be578281602093846000960137010152565b1561138857565b60405162461bcd60e51b815260206004820152600f60248201526e151c9858dac81b9bdd08199bdd5b99608a1b6044820152606490fdfea26469706673582212200abe538c4189f4756cfda9b44919da267b02d09465ce7812b6b65367f0548e2a64736f6c63430008130033",
  "linkReferences": {},
  "deployedLinkReferences": {}
}